:020000040800F2
:100000000000022095070008510700085507000866
:10001000590700085D07000861070008000000009C
:10002000000000000000000000000000E11E0008C9
:100030006507000800000000711F0008690700083C
:10004000E5070008E5070008E5070008E5070008E0
:10005000E5070008E5070008E5070008E5070008D0
:10006000E5070008E5070008E5070008E5070008C0
:10007000E5070008E5070008E5070008E5070008B0
:10008000E5070008E5070008E5070008E5070008A0
:10009000E5070008E5070008E5070008E507000890
:1000A000E5070008E5070008E5070008E507000880
:1000B000E5070008E5070008E5070008E507000870
:1000C000E5070008E5070008E5070008E507000860
:1000D000E5070008E5070008E5070008E507000850
:1000E000E5070008E5070008E5070008E507000840
:1000F000E5070008E5070008E5070008E507000830
:10010000E5070008E5070008E5070008E50700081F
:10011000E5070008E5070008E5070008E50700080F
:10012000E5070008E5070008E5070008E5070008FF
:10013000E50700080000000000000000E5070008D7
:10014000E5070008E5070008E5070008E5070008DF
:10015000E5070008E5070008E5070008E5070008CF
:10016000E5070008E5070008E5070008E5070008BF
:10017000E5070008E5070008000000000000000097
:08018000E5070008E50700088F
:1001900010B5054C237833B9044B13B10448AFF3C1
:1001A00000800123237010BD10000020000000001B
:1001B000F423000808B5034B1BB103490348AFF310
:1001C000008008BD0000000014000020F423000897
:1001D00053B94AB9002908BF00281CBF4FF0FF31AE
:1001E0004FF0FF3000F074B9ADF1080C6DE904CEAA
:1001F00000F006F8DDF804E0DDE9022304B0704702
:100200002DE9F047089D04468E46002B4DD18A42C9
:10021000944669D9B2FA82F252B101FA02F3C2F1FC
:10022000200120FA01F10CFA02FC41EA030E94408D
:100230004FEA1C48210CBEFBF8F61FFA8CF708FBAE
:1002400016E341EA034306FB07F199420AD91CEB86
:10025000030306F1FF3080F01F81994240F21C81B8
:10026000023E63445B1AA4B2B3FBF8F008FB103300
:1002700044EA034400FB07F7A7420AD91CEB040435
:1002800000F1FF3380F00A81A74240F20781644405
:10029000023840EA0640E41B00261DB1D44000238A
:1002A000C5E900433146BDE8F0878B4209D9002DEE
:1002B00000F0EF800026C5E9000130463146BDE878
:1002C000F087B3FA83F6002E4AD18B4202D38242E2
:1002D00000F2F980841A61EB030301209E46002D91
:1002E000E0D0C5E9004EDDE702B9FFDEB2FA82F2E6
:1002F000002A40F09280A1EB0C014FEA1C471FFA44
:100300008CFE0126200CB1FBF7F307FB131140EA2A
:1003100001410EFB03F0884208D91CEB010103F1F7
:10032000FF3802D2884200F2CB804346091AA4B2B9
:10033000B1FBF7F007FB101144EA01440EFB00FE8D
:10034000A64508D91CEB040400F1FF3102D2A645F2
:1003500000F2BB800846A4EB0E0440EA03409CE791
:10036000C6F12007B34022FA07FC4CEA030C20FA3E
:1003700007F401FA06F31C43F9404FEA1C4900FA5E
:1003800006F3B1FBF9F8200C1FFA8CFE09FB1811DB
:1003900040EA014108FB0EF0884202FA06F20BD94E
:1003A0001CEB010108F1FF3A80F08880884240F29E
:1003B0008580A8F102086144091AA4B2B1FBF9F0E2
:1003C00009FB101144EA014100FB0EFE8E4508D9DD
:1003D0001CEB010100F1FF346CD28E456AD9023862
:1003E000614440EA0840A0FB0294A1EB0E01A14247
:1003F000C846A64656D353D05DB1B3EB080261EBB5
:100400000E0101FA07F722FA06F3F1401F43C5E98E
:10041000007100263146BDE8F087C2F12003D840C4
:100420000CFA02FC21FA03F3914001434FEA1C4706
:100430001FFA8CFEB3FBF7F007FB10360B0C43EAF8
:10044000064300FB0EF69E4204FA02F408D91CEBA8
:10045000030300F1FF382FD29E422DD902386344A6
:100460009B1B89B2B3FBF7F607FB163341EA034146
:1004700006FB0EF38B4208D91CEB010106F1FF3895
:1004800016D28B4214D9023E6144C91A46EA00468C
:1004900038E72E46284605E70646E3E61846F8E61E
:1004A0004B45A9D2B9EB020864EB0C0E0138A3E767
:1004B0004646EAE7204694E74046D1E7D0467BE748
:1004C000023B614432E7304609E76444023842E7C0
:1004D000704700BF044B036010B48023034C0C60D2
:1004E0005DF8044B136070472C0200202C000020A4
:1004F00000B583B001F040FC054C0190204620215E
:1005000000F050FBC82101A801F01EFBF6E700BF78
:100510000004024008B5012000F0F6FEFBE700BF32
:1005200010B594B02C22002109A801F05BFF002334
:10053000CDE90233CDE904331A4900930693086CE0
:10054000194A40F080500864096C01F08051009114
:1005500000990193116841F48041116012680E9373
:10056000022002F48042019208900121102208A882
:10057000CDE90B12019C00F01FFB08B172B6FEE73B
:100580000F220023CDE9022301460022002302A806
:10059000CDE90423069100F027FD08B172B6FEE70D
:1005A00014B010BD003802400070004030B5002487
:1005B0008FB000F03DF9FFF7B3FFCDE90644CDE978
:1005C00008442C4B04940A94196B2B4841F0010108
:1005D0001963196B01F00101049104990594196BD9
:1005E00041F0020119631B6B03F0020322460593DD
:1005F0002021059B00F0D2FA20220123CDE9062319
:100600001D480022002306A9CDE9082300F0A6F921
:100610001A481B4A4FF4E133C0E900230C23C0E918
:100620000244C0E90443C0E9064400F09BFD08B160
:1006300072B6FEE7134D04460FCD0DF1180CACE871
:100640000F0095E807008CE80700214606A800F097
:1006500029FE0D49039403AA0423CDE90032086062
:1006600001230A490A48C82201F0C2F900F014FE29
:10067000FEE700BF00380240000402408402002070
:10068000004C00400C2400088002002034240008A4
:10069000F104000882B00E4B00220092596C41F424
:1006A00080415964586C00F4804000900098019299
:1006B000186C40F0805018641B6C03F08053019359
:1006C000019B0F216FF0010002B000F0EFB800BFF6
:1006D000003802400000000010B51B4A016888B0D5
:1006E00000239142CDE90233CDE90433069301D0D2
:1006F00008B010BD02F5F6320093106C40F40020F3
:100700001064106C00F40020009000980193136BAB
:100710000E4843F001031363136B9FED097B03F055
:10072000010301930322082302A98DED027BCDE989
:100730000523019C00F012F908B010BDAFF3008052
:100740000300000002000000004C004000000240D6
:10075000FEE700BFFEE700BFFEE700BFFEE700BF09
:10076000FEE700BF704700BF08B500F07BF801F05E
:1007700051FB012800D108BDBDE8084001F02ABCAA
:10078000034AD2F8883043F47003C2F888307047C7
:1007900000ED00E0DFF834D00D480E490E4A00238A
:1007A00002E0D458C4500433C4188C42F9D30B4A25
:1007B0000B4C002301E013600432A242FBD3FFF78D
:1007C000DFFF01F0EBFDFFF7F1FE704700000220B4
:1007D0000000002010000020682400081000002005
:1007E0001C400020FEE7000038B50E4A0E4B127880
:1007F0001B6805464FF47A70B0FBF2F0B3FBF0F0E3
:1008000000F092F808B90F2D01D9012038BD044637
:10081000024629464FF0FF3000F048F8034B2046CF
:100820001D6038BD040000200000002008000020EA
:1008300008B50B4B1A6842F400721A601A6842F449
:1008400080621A601A6842F480721A60032000F015
:100850001BF80F20FFF7C8FFFFF71CFF002008BDA3
:10086000003C0240034A044B11681B780B441360A0
:10087000704700BFC802002004000020014B186828
:10088000704700BFC80200200749CA6803024FF63C
:10089000FF0003F4E0630240134343F0BF6343F4FB
:1008A0000033CB60704700BF00ED00E01C4BDB68FD
:1008B000C3F3022300B5C3F1070EBEF1040F03F129
:1008C000040C28BF4FF0040EBCF1060F1BD9033BEC
:1008D0004FF0FF3C0CFA03FC22EA0C024FF0FF3C05
:1008E0000CFA0EFC21EA0C019940002841EA0201B1
:1008F0000CDB00F16040090100F56140C9B280F8ED
:1009000000135DF804FB00221346E7E7054B00F0F7
:100910000F0009010344C9B219765DF804FB00BF5A
:1009200000ED00E0FCEC00E00138B0F1807F10D277
:1009300010B44FF0E023084C58614FF0F00C84F8ED
:1009400023C00022072110469A615DF8044B19610B
:1009500070470120704700BF00ED00E02DE9F04F27
:1009600000220C68DFF82CA2834E85B0134689461E
:1009700005E00133102B02F1020200F08980012111
:10098000994001EA040BA143F3D1D9F804C00CF05B
:1009900003014D1E012D7ED9032940F0BE809140F8
:1009A000CD4307683D4029431CF4403F0160E0D03F
:1009B00000210391DAF8441041F48041CAF8441050
:1009C000DAF8441001F480410391039923F0030104
:1009D00001F1804101F59C3103F00307D1F808E0F3
:1009E000BF000F25BD402EEA0508644DA84224D063
:1009F00005F58065A84200F09480614DA84200F0A2
:100A00009780604DA84200F09A805F4DA84200F0A8
:100A10009D805E4DA84200F0A0805D4DA84200F090
:100A2000A380DFF874E170450CBF4FF0070E4FF064
:100A3000080E0EFA07F748EA0708C1F80880B168FF
:100A40006FEA0B071CF4801F0CBF39404BEA010111
:100A5000B160F5681CF4001F0CBF3D404BEA050572
:100A6000F56075681CF4003F0CBF3D404BEA05057E
:100A7000756031681CF4803F03F101030CBF3940FD
:100A80004BEA0101102B316002F102027FF477AFD3
:100A900005B0BDE8F08FD9F80C50876805FA02F868
:100AA000032505FA02FE27EA0E0748EA07078760D2
:100AB00047686FEA0E0527EA0B0ECCF300179F403C
:100AC00047EA0E074760C76807EA050ED9F80870BD
:100AD000974047EA0E070229C76001FA02F17FF446
:100AE00060AF4FEAD30E00EB8E0E03F00708DEF87E
:100AF00020700097D9F810704FEA880807FA08F7B5
:100B000001970F2707FA08F8009F27EA0808019FB6
:100B100047EA0807CEF8207043E703259540ED43E8
:100B2000D1E74FF0010E0EFA07F748EA070884E70D
:100B30004FF0020E0EFA07F748EA07087DE74FF07C
:100B4000030E0EFA07F748EA070876E74FF0040E9F
:100B50000EFA07F748EA07086FE74FF0050E0EFA9E
:100B600007F748EA070868E74FF0060E0EFA07F79E
:100B700048EA070861E700BF003C0140000002406E
:100B800000080240000C0240001002400014024025
:100B90000018024000380240001C024002B909045B
:100BA00081617047436901EA030221EA030141EAD6
:100BB00002418161704700BF002800F0A2812DE949
:100BC000F0410368DD0782B004462FD59E498A684C
:100BD00002F00C02042A00F0ED808A6802F00C0298
:100BE000082A00F0E3806368B3F5803F00F0EC80F2
:100BF000B3F5A02F00F07581934D2A6822F480325E
:100C00002A602A6822F480222A60002B40F0E180CA
:100C1000FFF734FE064605E0FFF730FE801B642830
:100C200000F201812B689B03F6D423689F0728D527
:100C3000854A916811F00C0F00F09080916801F0E6
:100C40000C01082900F08680E368002B00F00E817B
:100C50007E4B7D4E01221A60FFF710FE054605E02F
:100C6000FFF70CFE401B022800F2DD803368980776
:100C7000F6D53368226923F0F80343EAC2033360F0
:100C800023681A0751D458072FD56F4A136C13F0F5
:100C900080537FD000256E4E3368D90540F1B38074
:100CA000A368012B00F0C380052B00F02C81664E59
:100CB000326F22F001023267326F22F00402326793
:100CC000002B40F0B980FFF7D9FD41F28838074684
:100CD00005E0FFF7D3FDC01B404500F2A480336F51
:100CE0009807F6D4002D40F00681A069C8B1564D92
:100CF000AB6803F00C03082B00F0C980534B0022B3
:100D000002281A6600F00981FFF7B8FD044605E0E5
:100D1000FFF7B4FD001B022800F285802B689B01C1
:100D2000F6D4002002B0BDE8F08163690BB3474BF5
:100D3000454E0122C3F8802EFFF7A0FD054604E0D2
:100D4000FFF79CFD401B02286DD8736F9B07F7D5FA
:100D5000236898E7526856023FF576AF3A4A126820
:100D6000950744D5E268012A41D0012002B0BDE8D0
:100D7000F081364A344EC2F8803EFFF77FFD0546CB
:100D800004E0FFF77BFD401B02284CD8736F9F07E0
:100D9000F7D4DDE70193136C43F080531364136CB5
:100DA00003F080530193019B012574E74A685002C8
:100DB0007FF519AF244A126891037FF537AF626857
:100DC000002A7FF433AFD0E71F4A136843F480331F
:100DD0001360FFF753FD1C4E054604E0FFF74EFD80
:100DE000401B64281FD833689A03F7D51DE71649BE
:100DF00020690A6822F0F80242EAC0020A601A0773
:100E00007FF541AF91E7336843F480733360FFF7B8
:100E100035FD07463368DA053FF542AFFFF72EFD93
:100E2000C01B0228F6D9032002B0BDE8F081064AB3
:100E3000136F43F001031367FFF720FD024F0646CF
:100E400041F288380BE000BF003802400000474202
:100E500000700040FFF712FD801B4045E3D83B6F58
:100E60009B07F7D5002D3FF440AF44E0424A434E84
:100E70001360FFF703FD054604E0FFF7FFFC401B8E
:100E80000228D0D833689907F7D42368F9E60128F7
:100E90003FF448AF6B68E26903F4800191427FF44C
:100EA00064AF226A03F03F0191427FF45EAF616A52
:100EB00047F6C0721A40B2EB811F7FF456AFA26AA8
:100EC000520803F44031013AB1EB024F7FF44DAFC9
:100ED000E26A03F07063B3EB026F14BF01200020DD
:100EE00020E7264B1A6842F480221A601A6842F4FE
:100EF00080321A606DE7214A136C23F0805313642B
:100F0000F3E6012070471D4B1A6F42F004021A6786
:100F10001A6F42F001021A678EE7FFF7AFFC064630
:100F200005E0FFF7ABFC801B02283FF67CAF2B6887
:100F30009901F6D4D4E90731626A0B4343EA82137C
:100F4000D4E90A21520843EA0163013A0A4943EA13
:100F5000024301226B600A66FFF790FC074D0446CE
:100F600005E0FFF78BFC001B02283FF65CAF2B6807
:100F70009A01F6D5D5E600BF00004742003802408E
:100F8000164908B58B6803F00C03042B1BD0082B03
:100F900017D14A684B68496813F4800302F03F0296
:100FA00013D10F48C1F38811A1FB0001FFF710F91D
:100FB0000A4B5B68C3F3014301335B00B0FBF3F002
:100FC00008BD074808BD074808BD0648C1F3881199
:100FD0000023A1FB0001FFF7FBF8E9E7003802401E
:100FE0000024F40040787D01002800F08780484A02
:100FF000136803F007038B422DE9F0410D460446C8
:1010000009D2CBB21370136803F007038B4202D0EE
:101010000120BDE8F0812368980714D5590704D54D
:101020003C498A6842F4E0528A601A0704D539497B
:101030008A6842F460428A603649A0688A6822F071
:10104000F00202438A60DF0721D56268012A57D087
:10105000931E012B2F4B1B684DD99907D8D52D4EC8
:10106000B36823F003031343B360FFF707FC41F2B7
:101070008838074604E0FFF701FCC01B404544D810
:10108000B368626803F00C03B3EB820FF3D1204A1C
:10109000136803F00703AB4206D9EBB21370136871
:1010A00003F00703AB42B3D123685A0706D51949A9
:1010B000E0688A6822F4E05202438A601B0707D581
:1010C000144A2169936823F4604343EAC10393609F
:1010D000FFF756FF0F4A104C92681049C2F30312F3
:1010E0000346A25C0E48D34000680B60FFF77CFB10
:1010F0000020BDE8F0819801B1D489E70120704754
:10110000044B1B689E03AAD482E7032081E700BF3B
:10111000003C02400038024040240008000000204B
:1011200008000020044B05499B68054A0868C3F382
:101130008223D35CD8407047003802400000002072
:1011400050240008044B05499B68054A0868C3F30E
:101150004233D35CD8407047003802400000002082
:1011600050240008002800F08F8038B590F83D30FA
:10117000044603F0FF02002B00F081802368E06842
:10118000242284F83D20DA6822F40052DA601969DA
:10119000A26821F44051014320691961024360694A
:1011A000D9680243E06921F4164121F00C010243A1
:1011B0000A43DA605A69A069344922F44072024352
:1011C0008B425A6135D0324A934232D0FFF7AAFFA0
:1011D000E369B3F5004F32D0636819219A00A0FB90
:1011E00001019B0FFEF7F4FF2A49A1FB00325209CF
:1011F000642505FB1200000132302368A1FB0010BA
:10120000120102EB501098601A6922F490421A61A0
:101210005A6922F02A025A61DA680025202142F434
:101220000052DA60256484F83D1084F83E102846A8
:1012300038BDFFF787FFE369B3F5004FCCD1626893
:10124000192192184FF000035B41A0FB0101FEF74A
:10125000BFFF104BA3FB00214D09642202FB1502C6
:10126000D2003232A3FB0232C2F3421112092368C8
:1012700001EB051102F4F8720A449A60C4E780F8A1
:101280003C20FFF729FA79E7012070470010014060
:10129000001401401F85EB5108B500F0D9FC002077
:1012A00008BD00BF70B5446986B084460B46ACB13A
:1012B00086699EB1BCF908E0DCF80010DCF810206B
:1012C0004068BEF1840F14BF0EF103050025CDE97F
:1012D0000146009500F0D2FA06B070BDBCF9084096
:1012E000BCF81020842C14BF03340024DCE9001067
:1012F000009405AC019400F07BFB01280CBF05981D
:10130000002006B070BD00BF08B5012838BF01201D
:1013100000F06EFC002008BD00F108034FF0FF3123
:101320000022C0E90131C0E903330260704700BF09
:1013300000230361704700BF43689A688A600268AF
:1013400010B49C684B600132616099605DF8044B99
:1013500008610260704700BF30B40D686B1C10D08C
:1013600000F108031C465B681A68AA42FAD90268B1
:101370004B60013299608C606160086130BC026032
:10138000704704696368F2E7036910B4D0E9011299
:101390005C688A608442516008BF5A601A685DF8D0
:1013A000044B0021013A01611A601868704700BFC0
:1013B0002DE9F843044600F0A5FD344A344D136886
:1013C000013313602B68002B32D0324E33683BB3AD
:1013D000E36A314F314832490268013202600868DD
:1013E00001229A40024303EB83030A6007EB830068
:1013F000211DFFF7A1FF00F0A7FD336873B12A6834
:10140000E36AD26A9A4209D24FF0E0234FF0805249
:10141000C3F8042DBFF34F8FBFF36F8FBDE8F88380
:101420002A68E36AD26A1C4F9A4298BF2C60D1E7BF
:101430002C601368012B03D0E36A174F154EC9E7E0
:10144000154F3E4607F18C0830461436FFF764FF0F
:10145000B045F9D1DFF86090DFF860800D4E484666
:10146000FFF75AFF4046FFF757FF0E48FFF754FFBC
:101470000D48FFF751FF0D48FFF74EFF0C4BC3F827
:1014800000900C4BC3F80080E36AA3E764030020DC
:10149000CC020020C0030020D802002070030020EE
:1014A00074030020AC030020D8030020C4030020F4
:1014B000D0020020D4020020780300208C030020FA
:1014C000F8B51B4B1B4E1C6833680546181D0F46AC
:1014D000FFF75AFF48B933681749DA6A012303FA5C
:1014E00002F20B6823EA02030B606B1C17D033680F
:1014F00064195C6007D3114B18683168BDE8F84087
:101500000431FFF729BF0E4B186831680431FFF72B
:1015100023FF0C4B1A68A24288BF1C60F8BD002F45
:10152000E5D031680848BDE8F8400431FFF704BF52
:10153000EC030020CC02002074030020D402002021
:10154000D0020020A0030020C403002080B5214C5D
:10155000214E224D224F4FF0E0294FF08058236852
:1015600053B300F0CFFCF368D3F80CA00AF10400E9
:10157000FFF70AFF2B68013B2B602368013B2360C8
:1015800000F0E2FC9AF8513063B1012B1ED0022B1F
:10159000E5D04FF0500383F31188BFF36F8FBFF393
:1015A0004F8FFEE7DAF8300000F096FE504600F06C
:1015B00093FE2368002BD4D13B68012BCFD9C9F807
:1015C000048DBFF34F8FBFF36F8FC8E7504600F015
:1015D00083FEC4E768030020D803002064030020D2
:1015E000D80200202DE9F04F4A4B1D68013583B029
:1015F0001D60002D45D0484B01931B689D424DD383
:10160000464EDFF82C813368DFF828911C68002CE7
:101610007AD0434F00244FF0010A24E00091FFF7F5
:10162000B3FEDBF8282000990BF1180012B1FFF788
:10163000ABFE0099DBF82C003B680AFA00F200EBE5
:1016400080001A4308EB80003A60FFF775FED9F876
:1016500000203068DBF82C10D26A0368914228BF62
:101660000124002B50D03368DB68D3F80CB0DBF8D2
:1016700004200BF1040195420846CFD2019B1A6069
:1016800011E0264B1A6812680AB34FF0500383F337
:101690001188BFF36F8FBFF34F8FFEE7DFF89080A5
:1016A000DFF890900024D9F800301E49DB6A03EB84
:1016B00083039B0058F803200B68022A28BF0124EB
:1016C000002B0CBF2046012003B0BDE8F08F164A66
:1016D000186811681960154910600A6801320A60BB
:1016E0001A6812683AB90C4B01931A464FF0FF334F
:1016F0001360134681E71B68074ADB680192DB68C9
:101700005B681360134678E7019A4FF0FF3313606C
:10171000C9E700BFEC030020A0030020D002002096
:1017200074030020F0030020D4020020A403002052
:10173000D8020020CC0200202DE9F04F454C83B0A8
:1017400000F0E0FB2368013B23602368002B67D196
:10175000414B1B68002B63D0DFF818B1DBF8003079
:10176000002B73D03D4B3E4DDFF80C813D4F019374
:101770000126DBF80C30D3F80CA00AF104090AF1B9
:101780001800FFF701FE4846FFF7FEFDDAF82C00CF
:101790002A6806FA00F300EB80001343494608EB81
:1017A00080002B60FFF7C8FD3B68DAF82C20DB6A6D
:1017B0009A423DD3019B1E60DBF80030002BD8D14C
:1017C000294B1A681268002A3BD01A68274BD26846
:1017D000D26852681A60264E356895B1012706E036
:1017E000FFF700FF08B1019B1F60013D08D023688F
:1017F000002BF5D03368013D03F101033360F6D1CE
:101800003560019B1B685BB14FF0E0234FF08052C5
:10181000C3F8042DBFF34F8FBFF36F8F012000E09B
:101820000020019000F090FB019803B0BDE8F08F1C
:10183000DBF80030002B9CD10B4B1A681268002A91
:10184000C3D10A4B4FF0FF321A60C4E7034B019338
:10185000C1E700BF6C03002064030020F0030020F8
:1018600074030020CC020020D0020020A00300203E
:10187000A8030020AC030020D80200202DE9F0418D
:1018800084B0DDE90B45C4B175B106465420039020
:10189000039854281AD04FF0500383F31188BFF3F4
:1018A0006F8FBFF34F8FFEE74FF0500383F3118824
:1018B000BFF36F8FBFF34F8FFEE74FF0500383F3FB
:1018C0001188BFF36F8FBFF34F8FFEE702F1804C9B
:1018D0000CF1FF3C039A2C6304EB8C0C02222CF0DD
:1018E000070485F8512000297FD00A7885F8342034
:1018F0000A78002A4DD04A7885F835204A78002A9F
:1019000047D08A7885F836208A78002A41D0CA786C
:1019100085F83720CA78002A3BD00A7985F8382024
:101920000A79002A35D04A7985F839204A79002A7F
:101930002FD08A7985F83A208A7952B3CA7985F806
:101940003B20CA792AB30A7A85F83C200A7A02B386
:101950004A7A85F83D204A7ADAB18A7A85F83E20BB
:101960008A7AB2B1CA7A85F83F20CA7A8AB10A7BEC
:1019700085F840200A7B62B14A7B85F841204A7B8A
:101980003AB18A7B85F842208A7B12B1CA7B85F8FE
:101990004320002285F843200A9F0193062F28BF89
:1019A00006274FF00008EF626F64281DC5F84880D5
:1019B000FFF7BEFC05F11800FFF7BAFC019BC5F864
:1019C0004C80C7F107071A463146AF612D616D6241
:1019D00085F85080204600F06BFA28602846FFF713
:1019E000E7FC284604B0BDE8F08185F83410D3E761
:1019F0002DE9F0474FEA8209074648460D469846CA
:101A000000F0B2FB002800F092808246542000F0E3
:101A1000ABFB0446002800F08E800023C0F830A005
:101A200080F85130002D00F08C802B7880F8343015
:101A30002B78002B4DD06B7880F835306B78002BED
:101A400047D0AB7880F83630AB78002B41D0EB78BC
:101A500080F83730EB78002B3BD02B7980F838308A
:101A60002B79002B35D06B7980F839306B79002BCE
:101A70002FD0AB7980F83A30AB7953B3EB7980F85B
:101A80003B30EB792BB32B7A80F83C302B7A03B3C5
:101A90006B7A80F83D306B7ADBB1AB7A80F83E3000
:101AA000AB7AB3B1EB7A80F83F30EB7A8BB12B7B1A
:101AB00080F840302B7B63B16B7B80F841306B7BCF
:101AC0003BB1AB7B80F84230AB7B13B1EB7B80F852
:101AD0004330002384F84330089E062E28BF062694
:101AE0000025E6626664201DA564FFF721FC04F171
:101AF0001800FFF71DFCA9F104020AEB0200C6F171
:101B00000706E564A6612461646284F85050424689
:101B1000394620F0070000F0CBF9099B206003B1A3
:101B20001C602046FFF744FC0120BDE8F0874FF021
:101B3000FF30BDE8F087504600F0CEFB4FF0FF309D
:101B4000F3E780F83450C7E738B528B341B94FF010
:101B5000500383F31188BFF36F8FBFF34F8FFEE7FE
:101B6000214C23680BBB2368013323601F4B0268A1
:101B70001D6853182CBF01210021AA4203601DD902
:101B8000E9B9236813BB4FF0500383F31188BFF307
:101B90006F8FBFF34F8FFEE74FF0500383F3118831
:101BA000BFF36F8FBFF34F8FFEE74FF0500383F308
:101BB0001188BFF36F8FBFF34F8FFEE709B99D42C6
:101BC000DFD20021581BFFF77BFCDAE7FFF7B4FDFB
:101BD00048B94FF0E0234FF08052C3F8042DBFF313
:101BE0004F8FBFF36F8F38BD6C030020EC030020D4
:101BF00010B550B94FF0E0234FF08052C3F8042DD8
:101C0000BFF34F8FBFF36F8F10BD104C216841B1F0
:101C10004FF0500383F31188BFF36F8FBFF34F8FE3
:101C2000FEE7236801332360FFF74AFC236843B9CA
:101C30004FF0500383F31188BFF36F8FBFF34F8FC3
:101C4000FEE7FFF779FD0028D4D010BD6C0300201B
:101C500070B584B0002402AA01A96846CDE9004409
:101C6000FEF738FC019BCBB1009D75B15422039265
:101C70000399029A54291AD04FF0500383F3118824
:101C8000BFF36F8FBFF34F8FFEE74FF0500383F327
:101C90001188BFF36F8FBFF34F8FFEE74FF05003F4
:101CA00083F31188BFF36F8FBFF34F8FFEE702F10D
:101CB0008042013A03EB820202212B631D4B85F81F
:101CC0005110281D6B63C5E9114485F8384085F82B
:101CD0004340EC6222F00706039BFFF729FB05F166
:101CE0001800FFF725FB07231349EC642246AB617C
:101CF0002D616D6285F85040304600F0D9F82860BB
:101D00002846FFF755FB4FF0500383F31188BFF3CC
:101D10006F8FBFF34F8F0949094A0A4B4FF0FF30CD
:101D20000860012111601C6004B0BDE8704000F043
:101D30007BB900BF49444C454D150008A003002065
:101D4000C0030020EC030020024A13680133136033
:101D5000704700BF6C030020064B1B6843B94FF06F
:101D6000500383F31188BFF36F8FBFF34F8FFEE7EC
:101D7000FFF7E2BC6C030020014B1868704700BFFE
:101D8000EC030020054B1B680BB9FFF72BBC044A82
:101D90001368013300201360704700BF6C030020FC
:101DA000A8030020164B1B681BB1164B01221A60BA
:101DB00070471449144A0B601368B3FA83F3DBB21B
:101DC000C3F11F0303EB8303104A990002EB830363
:101DD000505840B94FF0500383F31188BFF36F8F11
:101DE000BFF34F8FFEE758680831406858600A44D7
:101DF000904204BF40685860054BC2681A60704743
:101E00006C030020F003002074030020D80200209F
:101E1000CC020020054B1B6833B1054B1B68002B1F
:101E20000CBF02200020704701207047C003002033
:101E30006C03002008480068006880F308884FF0B1
:101E4000000080F3148862B661B6BFF34F8FBFF312
:101E50006F8F00DF00BF000008ED00E0DFF80C002E
:101E6000016841F4700101607047000088ED00E0F6
:101E70000E4B1B6882B000220133019208D04FF054
:101E8000500383F31188BFF36F8FBFF34F8FFEE7CB
:101E90004FF0500383F31188BFF36F8FBFF34F8F61
:101EA000019B002BFCD002B0704700BF0C0000204B
:101EB00010B44FF08073074C40F8043C21F001014E
:101EC0006FF0020340E9034140E909325DF8044B39
:101ED00044387047711E0008000000000000000038
:101EE000074B19680868B0E8F04F80F30988BFF322
:101EF0006F8F4FF0000080F311887047AFF30080C0
:101F0000CC0200204FF0500383F31188BFF36F8F92
:101F1000BFF34F8F0B4A13680133012B136000D0BE
:101F200070474FF0E023D3F8043DDBB2002BF7D02D
:101F30004FF0500383F31188BFF36F8FBFF34F8FC0
:101F4000FEE700BF0C000020084A136843B94FF0B9
:101F5000500383F31188BFF36F8FBFF34F8FFEE7FA
:101F6000013B13600BB983F3118870470C0000200C
:101F7000EFF30980BFF36F8F154B1A681EF0100F37
:101F800008BF20ED108A20E9F04F10602DE909000C
:101F90004FF0500080F31188BFF34F8FBFF36F8F66
:101FA000FFF700FF4FF0000080F3118809BC1968AB
:101FB0000868B0E8F04F1EF0100F08BFB0EC108AB0
:101FC00080F30988BFF36F8F704700BFAFF30080C5
:101FD000CC02002008B54FF0500383F31188BFF303
:101FE0006F8FBFF34F8FFFF7CDFE28B14FF0E02387
:101FF0004FF08052C3F8042D002383F3118808BDED
:102000004FF0E02200230649136193610B680548F5
:10201000A0FB03039B090721013B5361116170473A
:1020200000000020D34D62104FF0E023484AD3F85F
:10203000001D914241D0D3F8002D464B9A4233D037
:1020400070B5454B454C1A78454884B0FF21D2B253
:10205000029219701B78DBB28DF807309DF80730BB
:102060009DF8072003F0500307211206237001603A
:1020700048BF06220FD59DF807305B00DBB28DF814
:1020800007309DF807301B06114602F1FF32F2D4EB
:1020900003291BD001604FF0500383F31188BFF375
:1020A0006F8FBFF34F8FFEE74FF0500383F311881C
:1020B000BFF36F8FBFF34F8FFEE74FF0500383F3F3
:1020C0001188BFF36F8FBFF34F8FFEE7029B224A49
:1020D000244D4FF0E0244FF44071DBB201601370E7
:1020E000D4F8203D43F47003C4F8203DD4F8203DDB
:1020F00043F07043C4F8203D0026FFF781FF2E60B7
:10210000FFF7ACFED4F8343F43F04043C4F8343F0B
:10211000FFF790FEFFF746FE2B680396013308D0C9
:102120004FF0500383F31188BFF36F8FBFF34F8FCE
:10213000FEE74FF0500383F31188BFF36F8FBFF3B7
:102140004F8F039B002BFCD0002004B070BD00BF5C
:1021500071C20F4170C20F4100E400E0F40300209F
:10216000F80300200C0000202DE9F0410646FFF79F
:10217000EBFD524B1D68002D6ED0514B1F683E4247
:102180002ED16EB306F1080476071CBF24F00704B5
:1021900008342CB3DFF83CC1DCF80060A6421FD342
:1021A0004848036803E01A6822B118461346596884
:1021B000A142F8D3AB4213D098460A1B58F808EB5B
:1021C000C0F800E0102A29D9191948070FD04FF09C
:1021D000500383F31188BFF36F8FBFF34F8FFEE778
:1021E000FFF7BAFD4FF000084046BDE8F0814A60B5
:1021F000344A5C60144612689142FBD8606804EB74
:10220000000E71454AD0D1F804E001EB0E00824285
:102210004BD00A608C4218BF216059682A4A106866
:10222000761A864238BF1660284ACCF800603943D7
:102230000020C3E90001136801331360FFF78CFD30
:1022400018F0070FD0D04FF0500383F31188BFF37D
:102250006F8FBFF34F8FFEE71D49194C4F0714BF17
:10226000CA1D0A4601F57051A1F1080525F00705C0
:1022700018BF22F0070214491D601046AB1A154A18
:102280000B60104913604FF00047002208604A605D
:102290002760C5E90022C0E9005370E7496800EBF8
:1022A000010EC4F804E02146AFE7AA42B1D050685D
:1022B00012680A6070444860ACE700BFFC0300206D
:1022C0000040002014400020084000200C40002066
:1022D0000004002004400020D0B12B4A50F8043CF8
:1022E000126813420BD050F8081C91B14FF0500304
:1022F00083F31188BFF36F8FBFF34F8FFEE74FF06B
:10230000500383F31188BFF36F8FBFF34F8FFEE746
:10231000704710B523EA020382B040F8043C1B4C1E
:102320000190FFF711FD0198226850F8041C184B2A
:102330000A44083822601A461B689842FBD8546841
:1023400002EB040E70451AD000EB010C63450CD073
:102350000360824218BF10600E4A13680133136095
:1023600002B0BDE81040FFF7F7BC0B4C2468A34255
:10237000EED0D3E900342144C0E90031E9E721443B
:1023800051601046E0E700BF0040002004400020FC
:102390001440002010400020FC03002070B50D4DBB
:1023A0000D4C641BA4100026A64209D10B4D0C4C09
:1023B00000F020F8641BA4100026A64205D170BDD1
:1023C00055F8043B98470136EEE755F8043B98472B
:1023D0000136F2E760240008602400086024000849
:1023E0006424000802440346934200D1704703F876
:1023F000011BF9E7F8B500BFF8BC08BC9E46704762
:0C240000F8B500BFF8BC08BC9E46704751
:10240C00282400081505000800000000000000004A
:10241C0080000000000000000000000064656661A0
:10242C00756C745461736B00626C696E6B206772AF
:10243C0065656E000000000000000000010203044E
:0C244C000607080900000000010203045C
:08245800A8DDFF7F0100000078
:04246000B5010008BA
:0424640091010008DA
:102468000024F4000100000010000000AAAAAAAA93
:040000050800079553
:00000001FF
