:020000040800F2
:10000000000002202D1D0008810900088309000856
:100010008509000887090008890900080000000018
:100020000000000000000000000000008B09000834
:100030008D090008000000008F09000891090008E0
:100040007D1D00087D1D00087D1D00089909000820
:100050007D1D00087D1D00087D1D00087D1D000818
:100060007D1D00087D1D00087D1D00087D1D000808
:100070007D1D00087D1D00087D1D00087D1D0008F8
:100080007D1D00087D1D00087D1D00087D1D0008E8
:100090007D1D00087D1D00087D1D00087D1D0008D8
:1000A0007D1D00087D1D00087D1D00087D1D0008C8
:1000B0007D1D00087D1D00087D1D00087D1D0008B8
:1000C0007D1D00087D1D00087D1D00087D1D0008A8
:1000D0007D1D00087D1D00087D1D00087D1D000898
:1000E0007D1D00087D1D00087D1D00087D1D000888
:1000F0007D1D00087D1D00087D1D00087D1D000878
:100100007D1D00087D1D00087D1D00087D1D000867
:100110007D1D00087D1D00087D1D00087D1D000857
:100120007D1D00087D1D00087D1D00087D1D000847
:100130007D1D000800000000000000007D1D00087B
:100140007D1D00087D1D00087D1D00087D1D000827
:100150007D1D00087D1D00087D1D00087D1D000817
:100160007D1D00087D1D00087D1D00087D1D000807
:100170007D1D00087D1D00087D1D00080000000099
:10018000000000007D1D00080000000000000000CD
:100190007D1D000800000000000000007D1D00081B
:1001A0000000000000000000000000007D1D0008AD
:1001B0007D1D00087D1D00087D1D00087D1D0008B7
:0401C0007D1D000899
:1001D00010B5054C237833B9044B13B10448AFF381
:1001E00000800123237010BD70000020000000007B
:1001F0007826000808B5034B1BB103490348AFF349
:10020000008008BD0000000074000020782600086F
:1002100053B94AB9002908BF00281CBF4FF0FF316D
:100220004FF0FF3000F074B9ADF1080C6DE904CE69
:1002300000F006F8DDF804E0DDE9022304B07047C1
:100240002DE9F047089D04468E46002B4DD18A4289
:10025000944669D9B2FA82F252B101FA02F3C2F1BC
:10026000200120FA01F10CFA02FC41EA030E94404D
:100270004FEA1C48210CBEFBF8F61FFA8CF708FB6E
:1002800016E341EA034306FB07F199420AD91CEB46
:10029000030306F1FF3080F01F81994240F21C8178
:1002A000023E63445B1AA4B2B3FBF8F008FB1033C0
:1002B00044EA034400FB07F7A7420AD91CEB0404F5
:1002C00000F1FF3380F00A81A74240F207816444C5
:1002D000023840EA0640E41B00261DB1D44000234A
:1002E000C5E900433146BDE8F0878B4209D9002DAE
:1002F00000F0EF800026C5E9000130463146BDE838
:10030000F087B3FA83F6002E4AD18B4202D38242A1
:1003100000F2F980841A61EB030301209E46002D50
:10032000E0D0C5E9004EDDE702B9FFDEB2FA82F2A5
:10033000002A40F09280A1EB0C014FEA1C471FFA03
:100340008CFE0126200CB1FBF7F307FB131140EAEA
:1003500001410EFB03F0884208D91CEB010103F1B7
:10036000FF3802D2884200F2CB804346091AA4B279
:10037000B1FBF7F007FB101144EA01440EFB00FE4D
:10038000A64508D91CEB040400F1FF3102D2A645B2
:1003900000F2BB800846A4EB0E0440EA03409CE751
:1003A000C6F12007B34022FA07FC4CEA030C20FAFE
:1003B00007F401FA06F31C43F9404FEA1C4900FA1E
:1003C00006F3B1FBF9F8200C1FFA8CFE09FB18119B
:1003D00040EA014108FB0EF0884202FA06F20BD90E
:1003E0001CEB010108F1FF3A80F08880884240F25E
:1003F0008580A8F102086144091AA4B2B1FBF9F0A2
:1004000009FB101144EA014100FB0EFE8E4508D99C
:100410001CEB010100F1FF346CD28E456AD9023821
:10042000614440EA0840A0FB0294A1EB0E01A14206
:10043000C846A64656D353D05DB1B3EB080261EB74
:100440000E0101FA07F722FA06F3F1401F43C5E94E
:10045000007100263146BDE8F087C2F12003D84084
:100460000CFA02FC21FA03F3914001434FEA1C47C6
:100470001FFA8CFEB3FBF7F007FB10360B0C43EAB8
:10048000064300FB0EF69E4204FA02F408D91CEB68
:10049000030300F1FF382FD29E422DD90238634466
:1004A0009B1B89B2B3FBF7F607FB163341EA034106
:1004B00006FB0EF38B4208D91CEB010106F1FF3855
:1004C00016D28B4214D9023E6144C91A46EA00464C
:1004D00038E72E46284605E70646E3E61846F8E6DE
:1004E0004B45A9D2B9EB020864EB0C0E0138A3E727
:1004F0004646EAE7204694E74046D1E7D0467BE708
:10050000023B614432E7304609E76444023842E77F
:10051000704700BF00000000000000000000000065
:1005200001F0FF01102A2BDB10F0070F08D010F8A4
:10053000013B013A8B422DD010F0070F42B3F6D1A8
:10054000F0B441EA012141EA014122F007047FF0C1
:1005500000070023F0E80256083C85EA010586EA18
:10056000010685FA47F5A3FA87F586FA47F6A5FA54
:1005700087F68EB9EED1F0BC01F0FF0102F0070260
:1005800032B110F8013B013A83EA010313B1F8D10B
:100590000020704701387047002D06BF35460338EC
:1005A000073815F0010F07D1013015F4807F02BF25
:1005B000013015F4C03F0130F0BC0138704700BF76
:1005C00070B50D4D0D4C641BA4100026A64209D138
:1005D0000B4D0C4C02F050F8641BA4100026A642F0
:1005E00005D170BD55F8043B98470136EEE755F844
:1005F000043B98470136F2E7F8260008F826000881
:10060000F8260008FC26000802440346934200D165
:10061000704703F8011BF9E730B58BB0002405944F
:10062000069407940894099401941D4B1A6B42F0A8
:1006300080021A631A6B02F080020192019A0294FE
:100640001A6B42F002021A631A6B02F00202029263
:10065000029A03941A6B42F008021A631A6B02F0B2
:1006600008020392039A04941A6B42F001021A637F
:100670001B6B03F001030493049B0A4D22462021C7
:10068000284600F05FFB202305930123069307947F
:10069000089405A9284600F063FA0BB030BD00BFEE
:1006A000003802400000024008B52021014800F057
:1006B0004FFB08BD0000024072B6FEE700B587B0F0
:1006C00000230193029303930493059300931E4820
:1006D0001E4A026043607F228260FF22C260036183
:1006E0004361836100F05BFF28BB00228DF804208A
:1006F0008DF805208DF806200492059201A9124874
:1007000000F0BAFFC8B901238DF800308DF8013030
:100710008DF8023000228DF8032069460A4801F066
:100720002AF860B904220021074801F0E1F840B935
:1007300007B05DF804FBFFF7BFFFFFF7BDFFFFF752
:10074000BBFFFFF7B9FF00BF8C000020002800406E
:1007500008B50A480A4B03604FF4E13343600023B5
:100760008360C36003610C2242618361C36101F055
:100770002DFA00B908BDFFF79FFF00BFAC000020B5
:100780000048004000B599B0302200210DEB020076
:10079000FFF73AFF00230793089309930A930B93FB
:1007A00003930493059306930193264A116C41F039
:1007B00080511164126C02F080520192019A0293EE
:1007C000214B1A6842F480421A601B6803F480438C
:1007D0000293029B09230C934FF480330D93012362
:1007E0001193022212924FF4800313930423149363
:1007F000A0211591169217930CA800F0B3FAD0B966
:100800000F23079302230893002309934FF4A05367
:100810000A930B93052107A800F00AFD68B902238B
:1008200003934FF40073069303A800F0D7FD30B98B
:1008300019B05DF804FBFFF73FFFFFF73DFFFFF73F
:100840003BFF00BF003802400070004010B58EB082
:1008500000F0DAF8FFF796FFFFF7DEFEFFF72EFF56
:10086000FFF776FF0F4C002204A9204600F0F9FFA5
:10087000002203A9204601F01CF89DF812300093D5
:100880009DF811309DF81020074909A801F078FA69
:10089000014609A801F036FA4FF47A7000F0E0F84A
:1008A000E0E700BF8C0000209026000882B0002105
:1008B00000910B4B5A6C42F480425A645A6C02F419
:1008C00080420092009A01911A6C42F080521A64A0
:1008D0001B6C03F080530193019B02B0704700BF73
:1008E0000038024008B50268074B9A4200D008BDA4
:1008F0000121064BC3F83C1E0022032000F0D6F86D
:10090000032000F00BF9F2E7002800400000474206
:1009100000B589B0002303930493059306930793CE
:100920000268154B9A4202D009B05DF804FB002121
:10093000019103F5F8331A6C42F480221A641A6CA0
:1009400002F480220192019A02911A6B42F0020293
:100950001A631B6B03F002030293029B4FF4406384
:10096000039302230493032306930723079303A906
:10097000024800F0F5F8D7E70048004000040240C4
:10098000FEE7FEE7FEE7FEE7FEE7704770477047C9
:1009900008B500F053F808BD08B5024801F030F87A
:1009A00008BD00BF8C000020034AD2F8883043F411
:1009B0007003C2F88830704700ED00E010B50446BF
:1009C0000E4B18784FF47A73B3FBF0F30C4A1068AF
:1009D000B0FBF3F000F0B0F868B90F2C01D901209A
:1009E0000AE0002221464FF0FF3000F05FF8054B8F
:1009F0001C60002000E0012010BD00BF6800002046
:100A0000640000206C00002008B50B4B1A6842F40B
:100A100000721A601A6842F480621A601A6842F41E
:100A200080721A60032000F02FF80020FFF7C6FF45
:100A3000FFF73CFF002008BD003C0240034A11685C
:100A4000034B1B780B441360704700BFF00000207D
:100A500068000020014B1868704700BFF0000020BC
:100A600038B50446FFF7F6FF0546B4F1FF3F02D064
:100A7000044B1B781C44FFF7EDFF401BA042FAD348
:100A800038BD00BF68000020074AD36823F4E06344
:100A90001B041B0C000200F4E060034343F0BF633F
:100AA00043F40033D360704700ED00E000B5194B0C
:100AB000DB68C3F30223C3F1070CBCF1040F28BFAA
:100AC0004FF0040C03F1040EBEF1060F18D9033BDE
:100AD0004FF0FF3E0EFA0CFC21EA0C0199400EFA91
:100AE00003F322EA0303194300280BDB0901C9B20F
:100AF00000F1604000F5614080F800135DF804FBF0
:100B00000023E5E700F00F000901C9B2024B1954B8
:100B1000F4E700BF00ED00E014ED00E0002807DB83
:100B200000F01F02400901239340024A42F820309E
:100B3000704700BF00E100E00138B0F1807F0BD2C8
:100B40004FF0E0235861054AF02182F8231000207D
:100B5000986107221A6170470120704700ED00E09C
:100B600000230F2B00F2E48070B582B060E085684E
:100B70005E000324B44025EA0405CC68B4402C434D
:100B80008460456825EA02054C68C4F300129A4067
:100B90002A4342605AE0DC08083450F8246003F02D
:100BA000070295000F22AA4026EA020E0A69AA400F
:100BB00042EA0E0240F824205CE0072200E0002216
:100BC00002FA0EF22A4302345A4D45F824205A4ABA
:100BD00014686FEA0C0224EA0C054E6816F4803F94
:100BE00001D04CEA0405544C2560646802EA04050F
:100BF0004E6816F4003F01D04CEA04054E4C656087
:100C0000A46802EA04054E6816F4801F01D04CEA7D
:100C10000405494CA560E46822404D6815F4001FA6
:100C200001D04CEA0402444CE26001330F2B7DD822
:100C300001229A400C6804EA020C32EA0404F4D15E
:100C40004C6804F00304013C012C90D94A6802F07E
:100C50000302032A09D0C4685D000322AA4024EAE3
:100C600002048A68AA402243C2604A6802F0030272
:100C7000022A90D004684FEA430E032202FA0EF2D1
:100C800024EA02044A6802F0030202FA0EF2224346
:100C900002604A6812F4403FC7D000220192274AFE
:100CA000546C44F480445464526C02F480420192C7
:100CB000019A9C08A51C1F4A52F8255003F0030214
:100CC0004FEA820E0F2202FA0EF225EA02051C4AB2
:100CD00090423FF474AF02F5806290421AD002F560
:100CE0008062904218D002F58062904216D002F5E0
:100CF0008062904214D002F58062904212D002F5D8
:100D00008062904210D002F5806290423FF455AF6D
:100D1000082255E7012253E7022251E703224FE759
:100D200004224DE705224BE7062249E702B070BDD9
:100D3000704700BF00380140003C014000380240CD
:100D4000000002400AB18161704709048161704767
:100D5000436901EA030221EA030141EA0241816198
:100D600070470000002800F0E08170B582B00446B2
:100D7000036813F0010F3BD09F4B9B6803F00C03FB
:100D8000042B2CD09C4B9B6803F00C03082B21D028
:100D90006368B3F5803F4FD0B3F5A02F52D0964B88
:100DA0001A6822F480321A601A6822F480221A60CB
:100DB0006368002B50D0FFF74DFE05468E4B1B6835
:100DC00013F4003F14D1FFF745FE401B6428F5D90A
:100DD0000320B1E1884B5B6813F4800FD8D0864BB9
:100DE0001B6813F4003F03D06368002B00F09F8161
:100DF000236813F0020F54D07F4B9B6813F00C0F45
:100E00003ED07D4B9B6803F00C03082B33D0E36886
:100E1000002B68D0794B01221A60FFF71BFE0546B4
:100E2000754B1B6813F0020F54D1FFF713FE401BE4
:100E30000228F5D903207FE16F4A136843F4803319
:100E40001360B5E76C4B1A6842F480221A601A6886
:100E500042F480321A60ABE7FFF7FCFD0546664BB3
:100E60001B6813F4003FC3D0FFF7F4FD401B642858
:100E7000F5D9032060E1604B5B6813F4800FC6D1A5
:100E80005D4B1B6813F0020F03D0E368012B40F0A9
:100E90005081594A136823F0F803216943EAC103DA
:100EA0001360236813F0080F42D063696BB3534B90
:100EB0000122C3F8802EFFF7CDFD05464E4B5B6F38
:100EC00013F0020F34D1FFF7C5FD401B0228F5D9FE
:100ED000032031E1484A136823F0F803216943EA0B
:100EE000C1031360DDE7454B00221A60FFF7B2FD36
:100EF0000546414B1B6813F0020FD2D0FFF7AAFD45
:100F0000401B0228F5D9032016E13C4B0022C3F810
:100F1000802EFFF79FFD0546374B5B6F13F0020FE6
:100F200006D0FFF797FD401B0228F5D9032003E107
:100F3000236813F0040F77D02F4B1B6C13F0805FE6
:100F400033D1002301932C4B1A6C42F080521A6467
:100F50001B6C03F080530193019B0125284B1B68F8
:100F600013F4807F23D0A368012B34D0052B38D015
:100F7000214B1A6F22F001021A671A6F22F0040245
:100F80001A67A368002B3DD0FFF764FD06461A4B95
:100F90001B6F13F0020F46D1FFF75CFD801B41F27F
:100FA00088339842F3D90320C6E00025D6E7144AD7
:100FB000136843F480731360FFF74CFD0646104B33
:100FC0001B6813F4807FCED1FFF744FD801B0228FD
:100FD000F5D90320B0E0084A136F43F0010313670B
:100FE000CFE7054B1A6F42F004021A671A6F42F0FE
:100FF00001021A67C5E700BF0038024000004742FF
:1010000000700040FFF726FD0646524B1B6F13F0A1
:10101000020F08D0FFF71EFD801B41F28833984273
:10102000F3D9032088E0EDB9A369002B00F0838099
:10103000484A926802F00C02082A51D0022B17D0BD
:10104000454B00221A66FFF705FD0446414B1B681D
:1010500013F0007F42D0FFF7FDFC001B0228F5D9FA
:10106000032069E03B4A136C23F080531364DBE7F1
:10107000394B00221A66FFF7EDFC0546354B1B681D
:1010800013F0007F06D0FFF7E5FC401B0228F5D9DE
:10109000032051E0E369226A1343626A43EA821340
:1010A000A26A5208013A43EA0243E26A43EA02634F
:1010B000284A5360284B01221A66FFF7CBFC0446EE
:1010C000244B1B6813F0007F06D1FFF7C3FC001B05
:1010D0000228F5D903202FE000202DE000202BE08E
:1010E000012B2BD01B4B5B6803F48001E26991421A
:1010F00026D103F03F02216A8A4223D1616A47F672
:10110000C0721A40B2EB811F1ED103F44031A26AB3
:101110005208013AB1EB024F18D103F07063E26A52
:10112000B3EB026F14D1002006E0012070470120CC
:1011300002E0012000E0002002B070BD0120FBE7CA
:101140000120F9E70120F7E70120F5E70120F3E7A7
:101150000120F1E7003802400000474208B5314B5A
:101160009B6803F00C03042B57D0082B57D12D4B51
:101170005A6802F03F025B6813F4800F2AD0294BB3
:101180005968C1F3881C4FEA4C11B1EB0C006EEBAF
:101190000E0E4FEA8E1343EA90638101091A63EB46
:1011A0000E03DB0043EA5173C90011EB0C0C43F151
:1011B0000003590200234FEA4C2041EADC51FFF7BB
:1011C00027F8184B5B68C3F3014301335B00B0FBA6
:1011D000F3F025E0134B5968C1F3881C4FEA4C111A
:1011E000B1EB0C006EEB0E0E4FEA8E1343EA9063E8
:1011F0008101091A63EB0E03DB0043EA5173C90056
:1012000011EB0C0C43F10003990200234FEA8C20F0
:1012100041EA9C51FEF7FCFFD3E7034800E0034896
:1012200008BD00BF0038024000127A000024F4001C
:10123000002800F09B8070B50D4604464F4B1B689C
:1012400003F007038B4208D2CBB24C4A13701368E9
:1012500003F007038B4240F08B80236813F0020FEA
:1012600017D013F0040F04D0454A936843F4E053B9
:101270009360236813F0080F04D0414A936843F445
:10128000604393603E4A936823F0F003A1680B43E8
:101290009360236813F0010F32D06368012B21D0D3
:1012A0009A1E012A25D9364A126812F0020F61D01F
:1012B00033498A6822F0030213438B60FFF7CAFBAD
:1012C00006462F4B9B6803F00C036268B3EB820F5A
:1012D00016D0FFF7BFFB801B41F288339842F0D94C
:1012E000032042E0264A126812F4003FE0D10120B8
:1012F0003BE0234A126812F0007FD9D1012034E08C
:101300001E4B1B6803F00703AB4207D9EAB21B4B25
:101310001A701B6803F00703AB422DD1236813F04A
:10132000040F06D0164A936823F4E053E1680B4398
:101330009360236813F0080F07D0114A936823F4D1
:101340006043216943EAC1039360FFF707FF0C4B39
:101350009B68C3F303130B4AD35CD8400A4B186055
:101360000A4B1868FFF72AFB002070BD0120704768
:101370000120FAE70120F8E70120F6E7003C0240EF
:1013800000380240A4260008640000206C00002001
:10139000014B1868704700BF6400002008B5FFF7D4
:1013A000F7FF044B9B68C3F38223034AD35CD84006
:1013B00008BD00BF00380240B426000808B5FFF79A
:1013C000E7FF044B9B68C3F34233034AD35CD84026
:1013D00008BD00BF00380240B426000830B583B015
:1013E0000446036813F0050F06D1236813F0020FBB
:1013F0002ED1002003B030BD4A4B00229A66FFF781
:1014000029FB0546484B1B6813F0006F06D0FFF719
:1014100021FB431B022BF5D90320EBE76268A3688D
:101420001B0743EA8213404AC2F884303D4B012235
:101430009A66FFF70FFB05463B4B1B6813F0006FE6
:10144000D3D1FFF707FB431B022BF5D90320D1E7CC
:1014500000230193344B1A6C42F080521A641B6CC7
:1014600003F080530193019B304A136843F4807367
:101470001360FFF7EFFA05462C4B1B6813F4807FCF
:1014800006D1FFF7E7FA431B022BF5D90320B1E79A
:10149000254B1B6F13F4407314D0E26802F44072C2
:1014A0009A420FD0204B1A6F22F440721D4901203E
:1014B000C1F8400E0020C1F8400E1A671B6F13F0F0
:1014C000010F13D1E36803F44072B2F5407F1ED0E0
:1014D000154A936823F4F813936013490B6FE2687D
:1014E000C2F30B0213430B67002083E7FFF7B2FA46
:1014F00005460D4B1B6F13F0020FE3D1FFF7AAFA5D
:10150000401B41F288339842F3D9032072E7064921
:101510008A6822F4F81223F0704323F440731343D3
:101520008B60DAE70000474200380240007000405C
:1015300038B504460268D36823F0A003D360FFF7F0
:1015400089FA05462368DB6813F0200F07D1FFF7FF
:1015500081FA401BB0F57A7FF4D9032000E0002027
:1015600038BD38B50368DA6812F0400F01D00020AA
:1015700038BD04464FF0FF32DA60FFF76BFA0546DC
:101580002368DB6813F0400F07D1FFF763FA431BB2
:10159000B3F57A7FF4D90320EAE70020E8E738B50D
:1015A00000285CD00446437F002B41D002236377A0
:1015B0002368CA225A62236853225A622046FFF7E0
:1015C000D0FF0546002837D12268936823F4E00352
:1015D00023F04003936021688A68636820690343AD
:1015E0006069034313438B602368E2681A612268D1
:1015F0001369A16843EA014313612268D36823F0A9
:101600008003D36023689B6813F0200F1BD02268EF
:10161000136C23F4802313642268136CA1690B43B9
:1016200013642368FF225A6201236377284638BD7A
:101630000377FFF757F9B9E72368FF225A620423BB
:1016400063770125F2E72046FFF772FF0028DED01E
:101650002368FF225A62042363770125E6E7012508
:10166000E4E7002302E001330A38C0B20928FAD8BF
:101670001B01DBB218437047F8B5037F012B78D00C
:1016800004460E460123037702234377002A47D1FD
:1016900003689B6813F0400F01D10023CB703078B2
:1016A000FFF7DFFF05047078FFF7DBFF45EA002551
:1016B000B078FFF7D6FF0543F07845EA0045236888
:1016C000CA225A62236853225A622046FFF749FF12
:1016D0000746002836D1236805F07F3525F0FE4502
:1016E0001D602268936823F48023936021688B68CF
:1016F000F2683069024313438B602268D36823F099
:101700008003D36023689B6813F0200F23D02368E5
:10171000FF225A6201236377002323773846F8BDFE
:1017200003689B6813F0400F01D10023CB7035781C
:101730007078000240EA0540B5782843F57840EA21
:101740000545BCE72368FF225A6204236377002320
:1017500023770127E2E72046FFF7EAFE0028D6D0EC
:101760002368FF225A62042363770023237701272B
:10177000D4E70227D2E770B5037F012B66D0044679
:101780000E4601230377022343773AB94B7813F0CF
:10179000100F03D003F0EF030A334B70002A33D14C
:1017A000F078FFF75EFF05047078FFF75AFF45EA0F
:1017B0000025B078FFF755FF0543307845EA4035FE
:1017C0002368CA225A62236853225A622046FFF7CE
:1017D000C8FE064618BB236825F07F4525F0C005E6
:1017E0005D602268D36823F08003D36023689B6820
:1017F00013F0200F1CD02368FF225A620123637765
:1018000000232377304670BDF5787078000240EAF7
:101810000540B5782843357840EA4535D0E7236858
:10182000FF225A6204236377002323770126E9E726
:101830002046FFF77DFE0028DDD02368FF225A6294
:1018400004236377002323770126DBE70226D9E709
:10185000030903EB830300F00F0000EB4300C0B269
:10186000704770B50C4603689B6A4B6003681B6940
:10187000C3F30E038B6003681D68C5F30641C5F30F
:1018800005402070C5F30626667005F07F05A5703B
:1018900001F04003E37052B9FFF7DAFF20703046E1
:1018A000FFF7D6FF60702846FFF7D2FFA070002038
:1018B00070BD70B503685B68C3F30740C870C3F3BD
:1018C00004264E7003F03F058D70C3F342330B7056
:1018D0005AB90C46FFF7BCFFE0703046FFF7B8FF7F
:1018E00060702846FFF7B4FFA070002070BD0000B4
:1018F000037F012B7CD030B482B001230377022315
:1019000043770368CA245C62036853245C620568F9
:10191000AB6813F4806F13D0364B1B68364CA4FBB6
:101920000343DB0A4FF47A7404FB03F30193019B36
:101930005C1E0194002B48D0EB6813F0040FF6D125
:10194000AB6823F48063AB602A4B1B682A4CA4FB72
:101950000343DB0A4FF47A7404FB03F30193019B06
:101960005C1E0194002B38D00368DC6814F0040F6F
:10197000F5D0596101688B6823F007038B6001681B
:101980008B681A438A601D4B1A6842F480021A6001
:101990009A6842F480029A600268D368DBB263F40A
:1019A0009063D3600268936843F480439360026855
:1019B000936843F4806393600368FF225A620123B3
:1019C00043770023037718460FE0FF236B6203235E
:1019D000437700220277184607E00368FF225A6225
:1019E0000323437700220277184602B030BC7047C9
:1019F0000220704764000020D34D6210003C01407B
:101A000010B504460368DB6813F4806F06D1084BF9
:101A10004FF480025A610123637710BDFEF744FE44
:101A20002268D368DBB263F49063D360EFE700BF52
:101A3000003C014038B504460268136923F4405362
:101A4000C1680B43136183680269134342691343FE
:101A5000C2691A430168CB6823F4164323F00C03D0
:101A60001343CB600268536923F4407381690B43CD
:101A700053610368314A934206D002F58062934273
:101A800002D0FFF78BFC01E0FFF798FCE369B3F5A8
:101A9000004F29D00021031849411B1841F10001D2
:101AA000C90041EA5371DB00181863684FEA8302EA
:101AB0004FEA937341F10001FEF7AAFB204DA5FB0D
:101AC00000325109642303FB11031B013233A5FBD0
:101AD00003235B0903F0F00202EB011203F00F0392
:101AE000216813448B6038BD0023021843EB0301C7
:101AF000121841F10001C90041EA5271D2001018D8
:101B000041F10001626892185B41FEF781FB0C4DC8
:101B1000A5FB00325109642303FB1103DB003233C0
:101B2000A5FB03235B095A0002F4F87202EB0112D1
:101B300003F00703216813448B60D4E700100140D1
:101B40001F85EB512DE9F84305460F461646994689
:101B5000DDF820802C68246837EA04030CBF4FF0BE
:101B6000010C4FF0000CB4452DD1B8F1FF3FF1D07E
:101B7000B8F1000F05D0FEF76DFFA0EB090040455E
:101B8000E8D92A6802F10C0353E8003F23F4D0732C
:101B90000C3242E800310029F3D12A6802F1140323
:101BA00053E8003F23F00103143242E800310029DA
:101BB000F3D1202385F83D3085F83E30002385F8A9
:101BC0003C30032000E00020BDE8F88358B310B596
:101BD000044690F83D300BB3242384F83D3022684E
:101BE000D36823F40053D3602046FFF723FF226815
:101BF000136923F4904313612268536923F02A0385
:101C000053612268D36843F40053D36000202064FA
:101C1000202384F83D3084F83E3010BD80F83C30FD
:101C2000FEF776FED8E7012070472DE9F04182B03B
:101C30001E4690F83D30DBB2202B54D104460D46B1
:101C40009046002953D0002A53D090F83C30012B05
:101C500051D0012380F83C3000230364212380F815
:101C60003D30FEF7F7FE0746A4F82480A4F826804E
:101C7000A368B3F5805F05D04FF00008002384F817
:101C80003C3012E0236913B14FF00008F6E7A84694
:101C90000025F3E738F8023B2268C3F308035360DA
:101CA000E28C92B2013A92B2E284E38C9BB273B1BD
:101CB00000963B46002280212046FFF743FFE0B913
:101CC000002DE7D015F8012B23685A60E8E700964D
:101CD0003B46002240212046FFF734FF78B92023FD
:101CE00084F83D3000E0022002B0BDE8F081012020
:101CF000FAE70120F8E70220F6E70320F4E70320E3
:101D0000F2E70000B1F57A7F08D808B50A238AB255
:101D100001460548FFF789FF18B908BD4FF0FF30AD
:101D200070476FF00100F8E7AC0000200D488546D1
:101D3000FEF73AFE0C480D490D4A002302E0D45844
:101D4000C4500433C4188C42F9D30A4A0A4C002305
:101D500001E013600432A242FBD3FEF731FCFEF730
:101D600075FDFEE70000022000000020700000204A
:101D7000002700087000002008010020FEE7000096
:101D80000EB400B59CB01DAB029006906FF0004100
:101D9000094807910491094953F8042B05910068FB
:101DA000019302A900F068F8029B00221A701CB08F
:101DB0005DF804EB03B07047000000200802FFFF4D
:101DC0002DE9F0478E689E4282460C4690461F469B
:101DD00038D88A8912F4906F32D025680969A5EB4A
:101DE0000109656905EB450505EBD57501334B44E4
:101DF0006D109D4238BF1D46530531D5294600F070
:101E000063FB064650B90C23CAF80030A38943F09F
:101E10004003A3814FF0FF30BDE8F08721694A46B7
:101E200000F0BEFAA38923F4906343F08003A381FA
:101E3000266165614E44A5EB09052660A5603E4616
:101E4000BE4200D93E4620683246414600F0B6FA0E
:101E5000A3689B1BA3602368334423600020DBE757
:101E60002A4600F0A5FB06460028E1D1216950462C
:101E700000F0BEFAC7E700002DE9F04F98468B89C5
:101E80001B069DB007460D4614460ED50B6963B977
:101E9000402100F019FB2860286120B90C233B6029
:101EA0004FF0FF30D1E040236B61002309932023E2
:101EB0008DF82930CDF80C803023DFF8A8818DF81B
:101EC0002A304FF0010923469A4613F8012B0AB134
:101ED000252AF9D1BAEB040B0BD05B4622462946E2
:101EE0003846FFF76DFF013000F0AA80099A5A4486
:101EF00009929AF80030002B00F0A28000234FF0E6
:101F0000FF32CDE905230AF1010A049307938DF806
:101F100053301A935446052214F8011B5148FEF71A
:101F2000FFFA049AD8B9D00644BF20238DF8533065
:101F3000110744BF2B238DF853309AF800302A2B19
:101F400015D0079A544600204FF00A0C214611F88C
:101F5000013B303B092B4ED9B0B1079214E0A0EB06
:101F6000080309FA03F313430493A246D2E7039B41
:101F7000191D1B680391002BBBBF5B4242F002029C
:101F800007930793B8BF049223782E2B0CD1637864
:101F90002A2B35D1039B1A1D1B680392002BB8BF57
:101FA0004FF0FF3302340593DFF8C8A021780322F5
:101FB0005046FEF7B5FA40B14023A0EB0A0003FA01
:101FC00000F0049B03430134049314F8011B2648DA
:101FD0008DF828100622FEF7A3FA002838D0234BEC
:101FE0001BBB039B073323F0070308330393099BB1
:101FF0003344099367E70CFB02320C460120A5E746
:1020000000230134059319464FF00A0C204610F8BE
:10201000012B303A092A03D9002BC5D00591C3E71B
:102020000CFB012104460123F0E703AB00932A4691
:102030000F4B04A93846AFF30080421C0646D6D1A8
:10204000AB895B063FF52CAF09981DB0BDE8F08F5A
:1020500003AB00932A46064B04A9384600F07AF8F1
:10206000EBE700BFBC260008C62600080000000001
:10207000C11D0008C22600082DE9F0471646994602
:102080008A680B69DDF820809342B8BF134633603D
:1020900091F8432007460C460AB1013333602368A8
:1020A000990642BF336802333360256815F0060590
:1020B00006D104F1190AE36832689B1AAB4226DCA8
:1020C00094F84320131E226818BF012392062BD4D4
:1020D00004F1430249463846C04701301ED0236808
:1020E000E568326803F00603042B08BFAD1AA36845
:1020F00022690CBF25EAE57500259342C4BF9B1AEF
:10210000ED1800261A34B5421AD1002008E0012348
:10211000524649463846C047013003D14FF0FF30A0
:10212000BDE8F0870135C6E7E1185A1C302081F878
:102130004300224494F8451082F843100233C7E765
:102140000123224649463846C0470130E6D00136D1
:10215000D9E700002DE9FF470F7E0C9D782F9146AF
:1021600080460C469A4601F1430207D8622F0AD8EE
:10217000002F00F0D880582F00F0A38004F1420512
:1021800084F842703AE0A7F16303152BF6D801A159
:1021900051F823F0ED210008012200087D210008FC
:1021A0007D2100087D2100087D2100080122000812
:1021B0007D2100087D2100087D2100087D21000887
:1021C0000D23000831220008EF2200087D210008BD
:1021D0007D2100082F2300087D21000831220008FE
:1021E0007D2100087D210008F72200082B681A1DB8
:1021F0001B682A6004F1420584F842300123A3E001
:1022000020682968060601F104030AD50E682B60D0
:10221000002E03DA2D23764284F843305E480A23E9
:1022200019E00E682B6010F0400F18BF36B2EFE7D0
:102230002B682068191D2960010601D51E6802E07F
:102240004606FBD51E8854486F2F0CBF08230A236F
:10225000002184F843106568A560002DA2BF2168A5
:1022600021F0040121600EB9002D4DD01546B6FBBA
:10227000F3F103FB1167C75D05F8017D3746BB42EB
:102280000E46F4D9082B0BD12368DE0708D5236945
:1022900061689942DEBF302305F8013C05F1FF3546
:1022A000521B2261CDF800A04B4603AA21464046AE
:1022B000FFF7E2FE01304CD14FF0FF3004B0BDE833
:1022C000F087354881F845702968236851F8046B18
:1022D00029601D0614D5DF0744BF43F020032360A7
:1022E0001EB9236823F0200323601023B0E723687E
:1022F00043F0200323607823284884F84530E3E73F
:10230000590648BFB6B2E6E71546BBE72B68266814
:102310006169181D286035061B6801D5196002E047
:102320007006FBD51980002323611546BAE72B6898
:102330001A1D2A601D68626800212846FEF7F0F821
:1023400008B1401B606063682361002384F8433058
:10235000A8E723692A4649464046D0470130ABD01A
:1023600023689B0713D4E068039B9842B8BF1846C4
:10237000A4E70123324649464046D04701309BD06E
:102380000135E36803995B1AAB42F2DCEBE7002509
:1023900004F11906F5E700BFCD260008DE26000887
:1023A0000A44914200F1FF3300D1704710B511F893
:1023B000014B03F8014F9142F9D110BD884210B58D
:1023C00001EB020402D98442234607D8431EA142EE
:1023D00008D011F8012B03F8012FF8E70244014659
:1023E0008A4200D110BD13F8014D02F8014DF7E704
:1023F00037B5002944D051F8043C0190002BA1F1DD
:102400000404B8BFE41800F013F91E4A01981368D9
:1024100033B96360146003B0BDE8304000F00EB91A
:10242000A34208D9256861198B4201BF19685B680E
:1024300049192160EDE71A465B680BB1A342FAD94E
:1024400011685518A5420BD1246821445418A342A1
:102450001160E0D11C685B68536021441160DAE7C9
:1024600002D90C230360D6E7256861198B4204BFAB
:1024700019685B68636004BF491921605460CAE74A
:1024800003B030BDF400002070B50E4E0C4631682C
:10249000054611B900F0BCF830602146284600F02E
:1024A000B7F8431C0AD0C41C24F00304A04207D090
:1024B000211A284600F0ACF8013001D14FF0FF346A
:1024C000204670BDF80000202DE9F041CD1C25F01C
:1024D000030508350C2D38BF0C25002D074601DB00
:1024E000A94205D90C233B6000263046BDE8F081A7
:1024F0002E4E00F09DF833681C4634BB2946384602
:10250000FFF7C2FF431C04464DD134682646002E17
:1025100040D123683146384604EB030800F078F8D0
:1025200080453AD1216803356D1A25F00305083539
:102530000C2D38BF0C2529463846FFF7A5FF013082
:102540002BD023682B4423600EE02268521B1ED43C
:102550000B2A16D96119A342256018BF5960636818
:1025600008BF316062514B60384604F10B0600F041
:1025700065F826F00706231DF21AB6D09B1BA35060
:10258000B3E76268A3420CBF32605A60ECE72346AF
:102590006468B2E734467668B9E70C233B60384696
:1025A00000F04CF8A1E72560DEE700BFF400002052
:1025B0002DE9F041804614460E4621B9BDE8F041B0
:1025C0001146FFF781BF2AB9FFF712FF25462846BB
:1025D000BDE8F08100F038F88442074602D8B4EB39
:1025E000500F12D821464046FFF76EFF05460028DF
:1025F000EDD0BC422246314628BF3A46FFF7D0FE16
:1026000031464046FFF7F4FEE1E73546DFE70000DC
:1026100038B5064D0023044608462B6000F01EF82E
:10262000431C02D12B6803B1236038BDFC0000209D
:10263000014800F011B800BF00010020014800F07F
:102640000CB800BF0001002051F8043C181F002BFB
:10265000BCBF0B58C018704770477047044A054903
:102660001368002B08BF0B461844106018467047CB
:102670000401002008010020F8B500BFF8BC08BC28
:102680009E467047F8B500BFF8BC08BC9E46704730
:1026900025322E32753A25322E32753A25322E32B7
:1026A000750A0000000000000000000001020304A1
:1026B000060708090000000001020304232D302B47
:1026C0002000686C4C006566674546470030313233
:1026D000333435363738394142434445460030318A
:1026E00032333435363738396162636465660000E9
:0826F00050DBFF7F0100000038
:0426F800F5010008E0
:0426FC00D101000800
:1027000004000020000000000000000000000000A5
:1027100000000000000000000000000000000000B9
:1027200000000000000000000000000000000000A9
:102730000000000000000000000000000000000099
:102740000000000000000000000000000000000089
:102750000000000000000000000000000000000079
:10276000000000000024F400010000001000000040
:0400000508001D2DA5
:00000001FF
