:020000040800F2
:1000000000000220151D00087D0900087F09000876
:100010008109000883090008850900080000000024
:100020000000000000000000000000008709000838
:1000300089090008000000008B0900088D090008EC
:10004000651D0008651D0008651D0008950900086C
:10005000651D0008651D0008651D0008651D000878
:10006000651D0008651D0008651D0008651D000868
:10007000651D0008651D0008651D0008651D000858
:10008000651D0008651D0008651D0008651D000848
:10009000651D0008651D0008651D0008651D000838
:1000A000651D0008651D0008651D0008651D000828
:1000B000651D0008651D0008651D0008651D000818
:1000C000651D0008651D0008651D0008651D000808
:1000D000651D0008651D0008651D0008651D0008F8
:1000E000651D0008651D0008651D0008651D0008E8
:1000F000651D0008651D0008651D0008651D0008D8
:10010000651D0008651D0008651D0008651D0008C7
:10011000651D0008651D0008651D0008651D0008B7
:10012000651D0008651D0008651D0008651D0008A7
:10013000651D00080000000000000000651D0008AB
:10014000651D0008651D0008651D0008651D000887
:10015000651D0008651D0008651D0008651D000877
:10016000651D0008651D0008651D0008651D000867
:10017000651D0008651D0008651D000800000000E1
:1001800000000000651D00080000000000000000E5
:10019000651D00080000000000000000651D00084B
:1001A000000000000000000000000000651D0008C5
:1001B000651D0008651D0008651D0008651D000817
:0401C000651D0008B1
:1001D00010B5054C237833B9044B13B10448AFF381
:1001E00000800123237010BD70000020000000007B
:1001F000E025000808B5034B1BB103490348AFF3E2
:10020000008008BD0000000074000020E025000808
:1002100053B94AB9002908BF00281CBF4FF0FF316D
:100220004FF0FF3000F06EB9ADF1080C6DE904CE6F
:1002300000F006F8DDF804E0DDE9022304B07047C1
:100240002DE9F047089D04468C46002B40F0838042
:100250008A42174647D9B2FA82F242B1C2F120006F
:1002600024FA00F09140974040EA010C94404FEA94
:100270001748230CBCFBF8F61FFA87FE08FB16C1D3
:1002800043EA014306FB0EF1994209D9FB1806F136
:10029000FF3080F01981994240F21681023E3B44C2
:1002A0005B1AA4B2B3FBF8F008FB103344EA034432
:1002B00000FB0EFEA64509D93C1900F1FF3380F082
:1002C0000581A64540F2028102383C4440EA0640DE
:1002D000A4EB0E0400261DB1D4400023C5E9004361
:1002E0003146BDE8F08702B9FFDEB2FA82F2002A99
:1002F00050D1CB1B4FEA174E1FFA87F80126B3FBEC
:10030000FEFC210C0EFB1C3341EA034108FB0CF3FD
:100310008B4207D979180CF1FF3002D28B4200F2E0
:10032000E9808446C91AA3B2B1FBFEF00EFB10119E
:1003300043EA014408FB00F8A04507D93C1900F145
:10034000FF3302D2A04500F2D9801846A4EB08047E
:1003500040EA0C40BFE78B4209D9002D00F0B18084
:100360000026C5E9000130463146BDE8F087B3FA02
:1003700083F6002E4AD18B4202D3824200F2B8802B
:10038000841A61EB030101208C46002DA8D0C5E939
:10039000004CA5E7C2F1200320FA03F6974001FACA
:1003A00002F04FEA174ED9403043030CB1FBFEF682
:1003B0001FFA87F80EFB161143EA014306FB08F10A
:1003C000994204FA02F409D9FB1806F1FF3C80F0C7
:1003D0008D80994240F28A80023E3B445B1A81B292
:1003E000B3FBFEF00EFB103341EA034100FB08F3C0
:1003F0008B4207D9791800F1FF3C73D28B4271D937
:1004000002383944CB1A40EA064678E7C6F1200C98
:1004100003FA06F422FA0CF31C4320FA0CF701FA53
:1004200006F34FEA144E21FA0CF11F433B0CB1FBCB
:10043000FEF91FFA84F80EFB191143EA014109FB8A
:1004400008FA8A4502FA06F200FA06F308D961189A
:1004500009F1FF3048D28A4546D9A9F10209214461
:10046000A1EB0A01BFB2B1FBFEF00EFB101147EA8F
:10047000014700FB08F8B84507D9E71900F1FF313B
:100480002ED2B8452CD90238274440EA0940A7EBC0
:100490000807A0FB02894F45C64649461AD317D024
:1004A0005DB1B3EB0E0267EB010707FA0CFCF240FB
:1004B0004CEA0202F740C5E9002700263146BDE8B4
:1004C000F0872E4628460BE70646E9E61846FDE685
:1004D0004345E5D2B8EB020E69EB04010138DFE7D2
:1004E0000846D2E760468DE78146B9E7664675E77C
:1004F00030464AE7ACF1020C394413E702383C4479
:1005000024E700BF704700BF0000000000000000AB
:1005100001F0FF01102A2BDB10F0070F08D010F8B4
:10052000013B013A8B422DD010F0070F42B3F6D1B8
:10053000F0B441EA012141EA014122F007047FF0D1
:1005400000070023F0E80256083C85EA010586EA28
:10055000010685FA47F5A3FA87F586FA47F6A5FA64
:1005600087F68EB9EED1F0BC01F0FF0102F0070270
:1005700032B110F8013B013A83EA010313B1F8D11B
:100580000020704701387047002D06BF35460338FC
:10059000073815F0010F07D1013015F4807F02BF35
:1005A000013015F4C03F0130F0BC0138704700BF86
:1005B00070B50D4D0D4C641BA4100026A64209D148
:1005C0000B4D0C4C02F00CF8641BA4100026A64244
:1005D00005D170BD55F8043B98470136EEE755F854
:1005E000043B98470136F2E76026000860260008C1
:1005F000602600086426000802440346934200D1A6
:10060000704703F8011BF9E730B58BB0002405945F
:10061000069407940894099401941E4B1A6B42F0B7
:1006200080021A631A6B02F080020192019A02940E
:100630001A6B42F002021A631A6B02F00202029273
:10064000029A03941A6B42F008021A631A6B02F0C2
:1006500008020392039A04941A6B42F001021A638F
:100660001B6B03F001030493049B0B4D22464FF4D4
:100670000041284600F05AFB4FF400430593012344
:1006800006930794089405A9284600F065FA0BB074
:1006900030BD00BF00380240000C024008B54FF4E6
:1006A0000041024800F048FB08BD00BF000C0240BA
:1006B00072B6FEE700B587B000230193029303935F
:1006C0000493059300931E481E4A026043607F22F4
:1006D0008260FF22C26003614361836100F04FFFCB
:1006E00028BB00228DF804208DF805208DF8062007
:1006F0000492059201A9124800F0AEFFC8B9012387
:100700008DF800308DF801308DF8023000228DF820
:10071000032069460A4801F01EF860B9042200214E
:10072000074801F0D5F840B907B05DF804FBFFF7C2
:10073000BFFFFFF7BDFFFFF7BBFFFFF7B9FF00BF2C
:10074000DC0000200028004008B50A480A4B03607E
:100750004FF4E133436000238360C36003610C22E4
:1007600042618361C36101F025FA00B908BDFFF75A
:100770009FFF00BF980000200048004000B599B0DE
:10078000302200210DEB0200FFF736FF0023079314
:10079000089309930A930B93039304930593069389
:1007A0000193264A116C41F080511164126C02F0E1
:1007B00080520192019A0293214B1A6842F48042BE
:1007C0001A601B6803F480430293029B09230C9375
:1007D0004FF480330D9301231193022212924FF4B0
:1007E0008003139304231493A02115911692179359
:1007F0000CA800F0ABFAD0B90F230793022308939B
:10080000002309934FF4A0530A930B93052107A8E3
:1008100000F0FEFC68B9022303934FF400730693C3
:1008200003A800F0CBFD30B919B05DF804FBFFF769
:100830003FFFFFF73DFFFFF73BFF00BF00380240DF
:100840000070004010B58EB000F0DCF8FFF796FFA6
:10085000FFF7DAFEFFF72EFFFFF776FF0F4C0022BF
:1008600004A9204600F0EDFF002203A9204601F074
:1008700010F89DF8123000939DF811309DF810206B
:10088000074909A801F070FA014609A801F02EFAFB
:100890004FF47A7000F0E2F8E0E700BFDC000020DF
:1008A000F825000882B0002100910B4B5A6C42F4ED
:1008B00080425A645A6C02F480420092009A01917C
:1008C0001A6C42F080521A641B6C03F0805301933F
:1008D000019B02B0704700BF0038024008B50268B3
:1008E000074B9A4200D008BD0121064B1960002237
:1008F000032000F0D9F8032000F00AF9F3E700BF65
:10090000002800403C0E474200B589B00023039305
:1009100004930593069307930268164B9A4202D0FC
:1009200009B05DF804FB0022019203F5F833196C5D
:1009300041F480211964196C01F48021019101991D
:100940000292196B41F0020119631B6B03F0020361
:100950000293029B4FF44063039302230493059296
:10096000032306930723079303A9034800F0F4F831
:10097000D6E700BF0048004000040240FEE7FEE763
:10098000FEE7FEE7FEE770477047704708B500F0E6
:1009900053F808BD08B5024801F022F808BD00BFB1
:1009A000DC000020034AD2F8883043F47003C2F818
:1009B0008830704700ED00E010B504460E4B187803
:1009C0004FF47A73B3FBF0F30C4A1068B0FBF3F00A
:1009D00000F0ACF868B90F2C01D901200AE0002220
:1009E00021464FF0FF3000F05FF8054B1C600020FF
:1009F00000E0012010BD00BF68000020640000205E
:100A00006C00002008B50B4B1A6842F400721A60A3
:100A10001A6842F480621A601A6842F480721A609E
:100A2000032000F02FF80020FFF7C6FFFFF73AFF82
:100A3000002008BD003C0240034A1168034B1B78AC
:100A40000B441360704700BFFC00002068000020CA
:100A5000014B1868704700BFFC00002038B5044601
:100A6000FFF7F6FF0546B4F1FF3F02D0044B1B78B9
:100A70001C44FFF7EDFF401BA042FAD338BD00BF76
:100A800068000020074AD36823F4E0631B041B0CB2
:100A9000000200F4E060034343F0BF6343F400331B
:100AA000D360704700ED00E030B4174BDB68C3F350
:100AB0000223C3F10704042C28BF04241D1D062DA6
:100AC00018D9033B4FF0FF3505FA04F421EA04017D
:100AD000994005FA03F322EA0303194300280BDBCC
:100AE0000901C9B200F1604000F5614080F80013CF
:100AF00030BC70470023E5E700F00F000901C9B2E0
:100B0000024B1954F4E700BF00ED00E014ED00E0E3
:100B1000002807DB00F01F02400901239340024A2E
:100B200042F82030704700BF00E100E00138B0F12A
:100B3000807F0AD2064B5860064AF02182F82310C3
:100B40000020986007221A6070470120704700BF9C
:100B500010E000E000ED00E000230F2B00F2DD804C
:100B6000F0B482B05DE086685F000324BC4026EAF2
:100B70000406CC68BC4034438460466826EA02061A
:100B80004C68C4F300129A403243426057E0DC08DC
:100B9000083450F8247003F0070296000F22B24088
:100BA00027EA02070A69B2403A4340F824205AE093
:100BB000072200E00022B2403A430234574E46F882
:100BC0002420574A1468EA4324EA05064F6817F4BC
:100BD000803F01D045EA0406514C2660646802EA71
:100BE00004064F6817F4003F01D045EA04064C4C58
:100BF0006660A46802EA04064F6817F4801F01D0FB
:100C000045EA0406464CA660E46822404E6816F4A5
:100C1000001F01D045EA0402414CE26001330F2B72
:100C200078D801229A400C6804EA020532EA0404EA
:100C3000F4D14C6804F00304013C012C93D94A68B8
:100C400002F00302032A09D0C4685E000322B24006
:100C500024EA02048A68B2402243C2604A6802F071
:100C60000302022A93D004685E000322B24024EA01
:100C700002044A6802F00302B240224302604A685A
:100C800012F4403FCAD000220192264A546C44F428
:100C900080445464526C02F480420192019A9C0890
:100CA000A61C1E4A52F8267003F0030296000F227B
:100CB000B24027EA02071C4A90423FF47BAF02F59C
:100CC000806290421AD002F58062904218D002F5FC
:100CD0008062904216D002F58062904214D002F5F4
:100CE0008062904212D002F58062904210D002F5EC
:100CF000806290423FF45CAF08225CE701225AE731
:100D0000022258E7032256E7042254E7052252E75D
:100D1000062250E702B0F0BC70477047003801402F
:100D2000003C014000380240000002400AB18161ED
:100D30007047090481617047436901EA030221EAAF
:100D4000030141EA0241816170470000002800F080
:100D5000DF8170B582B00446036813F0010F3BD009
:100D6000A64B9B6803F00C03042B2CD0A34B9B6871
:100D700003F00C03082B21D06368B3F5803F4FD0FC
:100D8000B3F5A02F52D09D4B1A6822F480321A601E
:100D90001A6822F480221A606368002B50D0FFF793
:100DA00057FE0546954B1B6813F4003F14D1FFF71F
:100DB0004FFE401B6428F5D90320B0E18F4B5B68E0
:100DC00013F4800FD8D08D4B1B6813F4003F03D071
:100DD0006368002B00F09E81236813F0020F54D04B
:100DE000864B9B6813F00C0F3ED0844B9B6803F03E
:100DF0000C03082B33D0E368002B67D0804B012213
:100E00001A60FFF725FE05467C4B1B6813F0020FA6
:100E100053D1FFF71DFE401B0228F5D903207EE1C8
:100E2000764A136843F480331360B5E7734B1A684E
:100E300042F480221A601A6842F480321A60ABE7EA
:100E4000FFF706FE05466D4B1B6813F4003FC3D049
:100E5000FFF7FEFD401B6428F5D903205FE1674BD7
:100E60005B6813F4800FC6D1644B1B6813F0020F4C
:100E700003D0E368012B40F04F81604A136823F0F0
:100E8000F803216943EAC1031360236813F0080FD4
:100E900040D0636963B35B4B01221A60FFF7D8FD52
:100EA0000546564B5B6F13F0020F33D1FFF7D0FDB1
:100EB000401B0228F5D9032031E1504A136823F082
:100EC000F803216943EAC1031360DEE74C4B0022BB
:100ED0001A60FFF7BDFD0546484B1B6813F0020F73
:100EE000D3D0FFF7B5FD401B0228F5D9032016E14A
:100EF000444B00221A60FFF7ABFD05463F4B5B6F8A
:100F000013F0020F06D0FFF7A3FD401B0228F5D90E
:100F1000032004E1236813F0040F78D0374B1B6CD7
:100F200013F0805F0DD100230193344B1A6C42F013
:100F300080521A641B6C03F080530193019B0125BE
:100F400000E00025304B1B6813F4807F21D0A3689C
:100F5000012B32D0052B36D0284B1A6F22F001021C
:100F60001A671A6F22F004021A67A368002B34D0A4
:100F7000FFF76EFD0646214B1B6F13F0020F45D1A4
:100F8000FFF766FD801B41F288339842F3D90320B6
:100F9000C5E01D4A136843F480731360FFF758FDE2
:100FA0000646194B1B6813F4807FD0D1FFF750FD24
:100FB000801B0228F5D90320B1E0104A136F43F0DB
:100FC00001031367D1E70D4B1A6F42F004021A6751
:100FD0001A6F42F001021A67C7E7FFF739FD0646AC
:100FE000064B1B6F13F0020F10D0FFF731FD801B73
:100FF00041F288339842F3D9032090E00038024050
:1010000000004742800E474200700040EDB9A369DE
:10101000002B00F08380494A926802F00C02082AF3
:1010200051D0022B17D0464B00221A60FFF710FD5B
:101030000446424B1B6813F0007F42D0FFF708FDC7
:10104000001B0228F5D9032069E03C4A136C23F009
:1010500080531364DBE73A4B00221A60FFF7F8FC79
:101060000546364B1B6813F0007F06D0FFF7F0FCF7
:10107000401B0228F5D9032051E0E369226A13439B
:10108000626A43EA8213A26A5208013A43EA0243BF
:10109000E26A43EA0263294A5360294B01221A603B
:1010A000FFF7D6FC0446254B1B6813F0007F06D1E2
:1010B000FFF7CEFC001B0228F5D903202FE000200B
:1010C0002DE000202BE0012B2BD01C4B5B6803F4A0
:1010D0008001E269914226D103F03F02216A8A42EF
:1010E00023D1616A47F6C0721A40B2EB811F1ED14C
:1010F00003F44031A26A5208013AB1EB024F18D111
:1011000003F07063E26AB3EB026F14D1002006E0D3
:1011100001207047012002E0012000E0002002B021
:1011200070BD0120FBE70120F9E70120F7E701206E
:10113000F5E70120F3E70120F1E700BF00380240A6
:1011400060004742F8B52F4B9B6803F00C03042B5B
:1011500053D0082B53D12B4B5A6802F03F025B68E7
:1011600013F4800F28D0274B5B68C3F38813580112
:101170000021C01A61F100018E0146EA90668701E4
:101180003C1A66EB0105E90041EA5471E000C01821
:1011900041F100014B0243EAD05344022046194674
:1011A0000023FFF735F8174B5B68C3F301430133A6
:1011B0005B00B0FBF3F023E0124B5B68C3F38813D2
:1011C0005C010025E41A65F10005AE0146EA94666B
:1011D000A701381B66EB0501CC0044EA5074C5003A
:1011E000E81844F100018B0243EA90538402204640
:1011F00019460023FFF70CF8D5E7034800E0034841
:10120000F8BD00BF0038024000127A000024F4004C
:10121000002800F09B8070B50D4604464F4B1B68BC
:1012200003F007038B4208D2CBB24C4A1370136809
:1012300003F007038B4240F08B80236813F0020F0A
:1012400017D013F0040F04D0454A936843F4E053D9
:101250009360236813F0080F04D0414A936843F465
:10126000604393603E4A936823F0F003A1680B4308
:101270009360236813F0010F32D06368012B21D0F3
:101280009A1E012A25D9364A126812F0020F61D03F
:1012900033498A6822F0030213438B60FFF7D8FBBF
:1012A00006462F4B9B6803F00C036268B3EB820F7A
:1012B00016D0FFF7CDFB801B41F288339842F0D95E
:1012C000032042E0264A126812F4003FE0D10120D8
:1012D0003BE0234A126812F0007FD9D1012034E0AC
:1012E0001E4B1B6803F00703AB4207D9EAB21B4B46
:1012F0001A701B6803F00703AB422DD1236813F06B
:10130000040F06D0164A936823F4E053E1680B43B8
:101310009360236813F0080F07D0114A936823F4F1
:101320006043216943EAC1039360FFF70BFF0C4B55
:101330009B68C3F303130B4AD35CD8400A4B186075
:101340000A4B1868FFF738FB002070BD012070477A
:101350000120FAE70120F8E70120F6E7003C02400F
:10136000003802400C260008640000206C000020B9
:10137000014B1868704700BF6400002008B5FFF7F4
:10138000F7FF044B9B68C3F38223034AD35CD84026
:1013900008BD00BF003802401C26000808B5FFF752
:1013A000E7FF044B9B68C3F34233034AD35CD84046
:1013B00008BD00BF003802401C26000830B583B0CD
:1013C0000446036813F0050F06D1236813F0020FDB
:1013D0002ED1002003B030BD494B00221A60FFF728
:1013E00037FB0546474B1B6813F0006F06D0FFF72D
:1013F0002FFB431B022BF5D90320EBE76268A368A0
:101400001B0743EA82133F4AC2F884303C4B012257
:101410001A60FFF71DFB05463A4B1B6813F0006F7F
:10142000D3D1FFF715FB431B022BF5D90320D1E7DE
:1014300000230193334B1A6C42F080521A641B6CE8
:1014400003F080530193019B2F4A136843F4807388
:101450001360FFF7FDFA05462B4B1B6813F4807FE2
:1014600006D1FFF7F5FA431B022BF5D90320B1E7AC
:10147000244B1B6F13F4407312D0E26802F44072E5
:101480009A420DD01F4B1A6F22F440721F4901205F
:101490000860002008601A671B6F13F0010F13D15A
:1014A000E36803F44072B2F5407F1ED0154A93689A
:1014B00023F4F813936013490B6FE268C2F30B0235
:1014C00013430B67002085E7FFF7C2FA05460D4B73
:1014D0001B6F13F0020FE3D1FFF7BAFA401B41F282
:1014E00088339842F3D9032074E706498A6822F4C6
:1014F000F81223F0704323F4407313438B60DAE750
:10150000680047420038024000700040400E4742E9
:1015100038B504460268D36823F0A003D360FFF710
:1015200097FA05462368DB6813F0200F07D1FFF711
:101530008FFA401BB0F57A7FF4D9032000E0002039
:1015400038BD38B50368DA6812F0400F01D00020CA
:1015500038BD04464FF0FF32DA60FFF779FA0546EE
:101560002368DB6813F0400F07D1FFF771FA431BC4
:10157000B3F57A7FF4D90320EAE70020E8E738B52D
:1015800000285CD00446437F002B41D002236377C0
:101590002368CA225A62236853225A622046FFF700
:1015A000D0FF0546002837D12268936823F4E00372
:1015B00023F04003936021688A68636820690343CD
:1015C0006069034313438B602368E2681A612268F1
:1015D0001369A16843EA014313612268D36823F0C9
:1015E0008003D36023689B6813F0200F1BD0226810
:1015F000136C23F4802313642268136CA1690B43DA
:1016000013642368FF225A6201236377284638BD9A
:101610000377FFF763F9B9E72368FF225A620423CF
:1016200063770125F2E72046FFF772FF0028DED03E
:101630002368FF225A62042363770125E6E7012528
:10164000E4E70023092803D901330A38C0B2F9E7D7
:101650001B01DBB218437047F8B5037F012B78D02C
:1016600004460E460123037702234377002A47D11D
:1016700003689B6813F0400F01D10023CB703078D2
:10168000FFF7DFFF05047078FFF7DBFF45EA002571
:10169000B078FFF7D6FF0543F07845EA00452368A8
:1016A000CA225A62236853225A622046FFF749FF32
:1016B0000746002836D1236805F07F3525F0FE4522
:1016C0001D602268936823F48023936021688B68EF
:1016D000F2683069024313438B602268D36823F0B9
:1016E0008003D36023689B6813F0200F23D0236806
:1016F000FF225A6201236377002323773846F8BD1F
:1017000003689B6813F0400F01D10023CB7035783C
:101710007078000240EA0540B5782843F57840EA41
:101720000545BCE72368FF225A6204236377002340
:1017300023770127E2E72046FFF7EAFE0028D6D00C
:101740002368FF225A62042363770023237701274B
:10175000D4E70227D2E770B5037F012B66D0044699
:101760000E4601230377022343773AB94B7813F0EF
:10177000100F03D003F0EF030A334B70002A33D16C
:10178000F078FFF75EFF05047078FFF75AFF45EA2F
:101790000025B078FFF755FF0543307845EA40351E
:1017A0002368CA225A62236853225A622046FFF7EE
:1017B000C8FE064618BB236825F07F4525F0C00506
:1017C0005D602268D36823F08003D36023689B6840
:1017D00013F0200F1CD02368FF225A620123637785
:1017E00000232377304670BDF5787078000240EA18
:1017F0000540B5782843357840EA4535D0E7236879
:10180000FF225A6204236377002323770126E9E746
:101810002046FFF77DFE0028DDD02368FF225A62B4
:1018200004236377002323770126DBE70226D9E729
:10183000030903EB830300F00F0000EB4300C0B289
:10184000704770B50C4603689B6A4B6003681B6960
:10185000C3F30E038B6003681D68C5F30641C5F32F
:1018600005402070C5F30626667005F07F05A5705B
:1018700001F04003E37052B9FFF7DAFF2070304601
:10188000FFF7D6FF60702846FFF7D2FFA070002058
:1018900070BD70B503685B68C3F30740C870C3F3DD
:1018A00004264E7003F03F058D70C3F342330B7076
:1018B0005AB90C46FFF7BCFFE0703046FFF7B8FF9F
:1018C00060702846FFF7B4FFA070002070BD0000D4
:1018D000037F012B7CD030B482B001230377022335
:1018E00043770368CA245C62036853245C6205681A
:1018F000AB6813F4806F13D0364B1B68364CA4FBD7
:101900000343DB0A4FF47A7404FB03F30193019B56
:101910005C1E0194002B48D0EB6813F0040FF6D145
:10192000AB6823F48063AB602A4B1B682A4CA4FB92
:101930000343DB0A4FF47A7404FB03F30193019B26
:101940005C1E0194002B38D00368DC6814F0040F8F
:10195000F5D0596101688B6823F007038B6001683B
:101960008B681A438A601D4B1A6842F480021A6021
:101970009A6842F480029A600268D368DBB263F42A
:101980009063D3600268936843F480439360026875
:10199000936843F4806393600368FF225A620123D3
:1019A00043770023037718460FE0FF236B6203237E
:1019B000437700220277184607E00368FF225A6245
:1019C0000323437700220277184602B030BC7047E9
:1019D0000220704764000020D34D6210003C01409B
:1019E00010B504460368DB6813F4806F06D1084B1A
:1019F0004FF480025A610123637710BDFEF74EFE5B
:101A00002268D368DBB263F49063D360EFE700BF72
:101A1000003C014070B504460268136923F440534A
:101A2000C1680B431361836802691343426913431E
:101A3000C2691A430168CB6823F4164323F00C03F0
:101A40001343CB600268536923F4407381690B43ED
:101A500053610368344A934206D002F58062934290
:101A600002D0FFF78BFC01E0FFF798FCE369B3F5C8
:101A7000004F2AD00026051846EB06012D1846EB2C
:101A80000101CB0043EA5573EA0015461946636825
:101A90009A009B0F281846EB0101FEF7B9FB234D76
:101AA000A5FB00325109642303FB11031B013233F0
:101AB000A5FB03235B0903F0F00202EB011203F024
:101AC0000F03216813448B6070BD0026051846EB98
:101AD00006012D1846EB0101CB0043EA5573EA00DD
:101AE0001546194662683346921846EB03032818D8
:101AF00046EB0101FEF78CFB0C4DA5FB00325109B2
:101B0000642303FB1103DB003233A5FB03235B09D2
:101B10005A0002F4F87202EB011203F00703216885
:101B200013448B60D0E700BF001001401F85EB51CC
:101B30002DE9F84305460F4616469946DDF8208004
:101B40002C68246837EA04030CBF01240024B44243
:101B50002DD1B8F1FF3FF3D0B8F1000F05D0FEF75B
:101B600077FFA0EB09004045EAD92A6802F10C038F
:101B700053E8003F23F4D0730C3242E800310029CF
:101B8000F3D12A6802F1140353E8003F23F0010364
:101B9000143242E800310029F3D1202385F83D308A
:101BA00085F83E30002385F83C30032000E000201B
:101BB000BDE8F88358B310B5044690F83D300BB338
:101BC000242384F83D302268D36823F40053D36083
:101BD0002046FFF71FFF2268136923F49043136127
:101BE0002268536923F02A0353612268D36843F4BF
:101BF0000053D36000202064202384F83D3084F813
:101C00003E3010BD80F83C30FEF77EFED8E7012064
:101C100070472DE9F04182B01E4690F83D30DBB2AE
:101C2000202B54D104460D469046002953D0002A5B
:101C300053D090F83C30012B51D0012380F83C3038
:101C400000230364212380F83D30FEF701FF07469F
:101C5000A4F82480A4F82680A368B3F5805F05D09B
:101C60004FF00008002384F83C3012E0236913B1E0
:101C70004FF00008F6E7A8460025F3E738F8023BE6
:101C80002268C3F308035360E28C92B2013A92B225
:101C9000E284E38C9BB273B100963B460022802124
:101CA0002046FFF745FFE0B9002DE7D015F8012BDE
:101CB00023685A60E8E700963B4600224021204610
:101CC000FFF736FF78B9202384F83D3000E002208A
:101CD00002B0BDE8F0810120FAE70120F8E7022018
:101CE000F6E70320F4E70320F2E70000B1F57A7F7E
:101CF00008D808B50A238AB201460548FFF789FFCC
:101D000018B908BD4FF0FF3070476FF00100F8E7D9
:101D1000980000200D488546FEF744FE0C480D490A
:101D20000D4A002302E0D458C4500433C4188C4236
:101D3000F9D30A4A0A4C002301E013600432A2429C
:101D4000FBD3FEF735FCFEF77DFDFEE70000022029
:101D500000000020700000206826000870000020AD
:101D600010010020FEE700000EB400B59CB01DABD2
:101D7000029006906FF000410948079104910949CB
:101D800053F8042B05910068019302A900F068F84C
:101D9000029B00221A701CB05DF804EB03B0704780
:101DA000000000200802FFFF2DE9F0478E689E42E8
:101DB00082460C4690461F4638D88A8912F4906FA6
:101DC00032D025680969A5EB0109656905EB450570
:101DD00005EBD57501334B446D109D4238BF1D4650
:101DE000530531D5294600F047FB064650B90C2370
:101DF000CAF80030A38943F04003A3814FF0FF30BD
:101E0000BDE8F08721694A4600F0BEFAA38923F4B1
:101E1000906343F08003A381266165614E44A5EB86
:101E200009052660A5603E46BE4200D93E463246C0
:101E30002068414600F0B6FAA36822689B1B324432
:101E4000A36022600020DBE72A4600F06FFB064615
:101E50000028E1D12169504600F0BEFAC7E7000032
:101E60002DE9F04F98468B891B069DB007460D461D
:101E700014460ED50B6963B9402100F0FDFA2860C5
:101E8000286120B90C233B604FF0FF30D1E04023A4
:101E90006B610023099320238DF82930CDF80C8045
:101EA0003023DFF8A8818DF82A304FF0010923464E
:101EB0009A4613F8012B0AB1252AF9D1BAEB040B83
:101EC0000BD05B46224629463846FFF76DFF0130AE
:101ED00000F0AA80099A5A4409929AF80030002B1F
:101EE00000F0A28000234FF0FF32CDE905230AF174
:101EF000010A049307938DF853301A935446052230
:101F000014F8011B5148FEF703FB049AD8B9D00618
:101F100044BF20238DF85330110744BF2B238DF885
:101F200053309AF800302A2B15D0079A54460020D7
:101F30004FF00A0C214611F8013B303B092B4ED9DA
:101F4000B0B1079214E0A0EB080309FA03F31343BE
:101F50000493A246D2E7039B191D1B680391002B33
:101F6000BBBF5B4242F0020207930793B8BF0492E3
:101F700023782E2B0CD163782A2B35D1039B1A1D85
:101F80001B680392002BB8BF4FF0FF330234059358
:101F9000DFF8C8A0217803225046FEF7B9FA40B115
:101FA0004023A0EB0A0003FA00F0049B0343013432
:101FB000049314F8011B26488DF828100622FEF71A
:101FC000A7FA002838D0234B1BBB039B073323F011
:101FD000070308330393099B3344099367E70CFB1A
:101FE00002320C460120A5E700230134059319466F
:101FF0004FF00A0C204610F8012B303A092A03D979
:10200000002BC5D00591C3E70CFB01210446012339
:10201000F0E703AB00932A460F4B04A93846AFF311
:102020000080421C0646D6D1AB895B063FF52CAF3B
:1020300009981DB0BDE8F08F03AB00932A46064B0C
:1020400004A9384600F07AF8EBE700BF2426000820
:102050002E26000800000000A91D00082A260008FE
:102060002DE9F047164699468A680B69DDF820800D
:102070009342B8BF1346336091F8432007460C469D
:102080000AB1013333602368990642BF33680233D3
:102090003360256815F0060506D104F1190AE368D6
:1020A00032689B1AAB4226DC94F84320131E226848
:1020B00018BF012392062BD404F143024946384647
:1020C000C04701301ED02368E568326803F006037C
:1020D000042B08BFAD1AA36822690CBF25EAE57579
:1020E00000259342C4BF9B1AED1800261A34B5424E
:1020F0001AD1002008E00123524649463846C0471D
:10210000013003D14FF0FF30BDE8F0870135C6E75D
:10211000E1185A1C302081F84300224494F84510FD
:1021200082F843100233C7E7012322464946384666
:10213000C0470130E6D00136D9E700002DE9FF475E
:102140000C469146277E0C99782F80469A4604F1DA
:10215000430207D8622F0AD8002F00F0D880582FEA
:1021600000F0A38004F1420684F842703AE0A7F13F
:102170006303152BF6D801A050F823F0D5210008F1
:10218000E921000865210008652100086521000893
:1021900065210008E9210008652100086521000883
:1021A0006521000865210008F522000819220008B1
:1021B000D7220008652100086521000817230008C0
:1021C0006521000819220008652100086521000822
:1021D000DF2200080B681A1D1B680A6004F1420622
:1021E00084F842300123A3E0256808682E0600F138
:1021F00004030AD505680B60002D03DA2D236D4218
:1022000084F843305E480A2319E015F0400F056852
:102210000B6018BF2DB2EFE70B682568181D08602A
:10222000280601D51D6802E06906FBD51D885448C3
:102230006F2F0CBF08230A23002184F8431066681F
:10224000A660002EA2BF216821F0040121600DB913
:10225000002E4DD01646B5FBF3F103FB1157C75DB9
:1022600006F8017D2F46BB420D46F4D9082B0BD151
:102270002368DF0708D5236961689942DEBF3023F0
:1022800006F8013C06F1FF36921B2261CDF800A052
:102290004B4603AA21464046FFF7E2FE01304CD1EF
:1022A0004FF0FF3004B0BDE8F087354884F8457042
:1022B00023680E681F0656F8045B0E6014D5D90714
:1022C00044BF43F0200323601DB9236823F020039B
:1022D00023601023B0E7236843F0200323607823B2
:1022E000284884F84530E3E75E0648BFADB2E6E72C
:1022F0001646BBE70B68266860691D1D0D60350634
:102300001B6801D5186002E07106FBD51880002318
:1023100023611646BAE70B681A1D0A601E686268D8
:1023200000213046FEF7F4F808B1801B6060636856
:102330002361002384F84330A8E7236932464946E5
:102340004046D0470130ABD023689B0713D4E068E8
:10235000039B9842B8BF1846A4E70123324649467A
:102360004046D04701309BD00135E36803995B1AA2
:10237000AB42F2DCEBE7002504F11906F5E700BFFC
:1023800035260008462600080A44914200F1FF3332
:1023900000D1704710B511F8014B03F8014F91427D
:1023A000F9D110BD884210B501EB020402D9844274
:1023B000234607D8431EA14208D011F8012B03F889
:1023C000012FF8E7024401468A4200D110BD13F8FC
:1023D000014D02F8014DF7E737B5002948D051F813
:1023E000043C0190002BA1F10404B8BFE41800F0F4
:1023F000D3F8204A01981368154633B96360146016
:1024000003B0BDE8304000F0CDB8A3420BD921683D
:102410006218934204BF1A685B68636004BF521875
:1024200022602C60ECE71A465B680BB1A342FAD934
:1024300011685518A5420BD1246821445418A342B1
:102440001160DDD11C685B68536021441160D7E7DF
:1024500002D90C230360D3E7256861198B4204BFBE
:1024600019685B68636004BF491921605460C7E75D
:1024700003B030BD8C000020F8B5CD1C25F003055D
:1024800008350C2D38BF0C25002D064601DBA9426E
:1024900003D90C2333600020F8BD00F07DF82149FA
:1024A0000A6814469CB9204F3B6823B92146304640
:1024B00000F062F838602946304600F05DF8431CB1
:1024C00023D10C233360304600F06CF8E3E7236837
:1024D0005B1B17D40B2B03D923601C44256004E03D
:1024E0006368A2420CBF0B605360304600F05AF89C
:1024F00004F10B00231D20F00700C21ACCD01B1AD8
:10250000A350C9E722466468CCE7C41C24F0030446
:10251000A042E3D0211A304600F02EF80130DDD180
:10252000CFE700BF8C00002090000020F8B50746E0
:1025300014460E4621B9BDE8F8401146FFF79CBF8E
:1025400022B9FFF749FF25462846F8BD00F030F8CC
:10255000A0420FD221463846FFF78EFF05460028DD
:10256000F2D031462246FFF70FFF31463846FFF7DB
:1025700033FFE9E73546E7E738B5064D0023044663
:1025800008462B6000F01EF8431C02D12B6803B1F3
:10259000236038BD00010020014800F011B800BFE1
:1025A00008010020014800F00CB800BF080100201D
:1025B00051F8043C181F002BBCBF0B58C0187047C3
:1025C00070477047044B1968024609B903491960FE
:1025D000186802441A60704794000020100100201F
:1025E000F8B500BFF8BC08BC9E467047F8B500BF00
:0825F000F8BC08BC9E467047D0
:1025F80025322E32753A25322E32753A25322E3250
:10260800750A000000000000000000000102030439
:10261800060708090000000001020304232D302BDF
:102628002000686C4C0065666745464700303132CB
:102638003334353637383941424344454600303122
:102648003233343536373839616263646566000081
:08265800E8DBFF7F0100000038
:04266000F501000878
:04266400D101000898
:10266800040000200000000000000000000000003E
:102678000000000000000000000000000000000052
:102688000000000000000000000000000000000042
:102698000000000000000000000000000000000032
:1026A8000000000000000000000000000000000022
:1026B8000000000000000000000000000000000012
:1026C800000000000024F4000100000010000000D9
:0400000508001D15BD
:00000001FF
